:020000040800F2
:1000000000060020F1020008CD210008812100082F
:10001000A921000881210008A1210008F30200089D
:10002000F3020008F3020008F3020008214300086D
:10003000F3020008F3020008F3020008F3020008CC
:10004000F3020008F3020008F3020008F3020008BC
:10005000F3020008F3020008315C00085D5C000850
:10006000895C0008B55C0008E15C0008D12200084A
:10007000F922000825230008512300087D230008E9
:10008000A5230008D1230008F3020008F3020008AA
:10009000F3020008F3020008F30200080D5D0008F7
:1000A000F3020008F3020008F3020008F30200085C
:1000B000F3020008F3020008F3020008F30200084C
:1000C000F3020008F3020008F3020008F30200083C
:1000D000F3020008F3020008F3020008F30200082C
:1000E000715D0008F3020008F3020008F302000843
:1000F000F3020008F3020008F3020008FD230008E1
:10010000F3020008F3020008F95D0008F30200089A
:10011000F3020008F3020008F3020008F3020008EB
:1001200029240008512400087D240008A92400087F
:10013000D5240008F3020008F3020008F3020008C7
:10014000F3020008F3020008F3020008F3020008BB
:10015000FD2400082925000855250008F3020008A1
:10016000F3020008F3020008F3020008F30200089B
:10017000F3020008C9500008F3020008F302000867
:10018000F3020008F3020008F3020008F30200087B
:10019000F3020008F3020008F3020008F30200086B
:1001A000F3020008F3020008F3020008F30200085B
:1001B000E55D0008F3020008F3020008F3020008FE
:1001C000F3020008F3020008F3020008F30200083B
:1001D000F3020008B5500008F3020008F30200081B
:1001E000F3020008F3020008F3020008F30200081B
:1001F000F3020008F3020008F3020008F30200080B
:10020000F3020008F3020008F3020008F3020008FA
:10021000F3020008F3020008F3020008F3020008EA
:10022000F3020008F302000815450008F302000875
:10023000F3020008F3020008F3020008F3020008CA
:10024000F3020008F3020008F3020008F3020008BA
:10025000F3020008F3020008F3020008F3020008AA
:10026000F3020008F3020008F3020008F30200089A
:10027000F3020008F3020008F3020008F30200088A
:10028000F3020008F3020008F3020008F30200087A
:10029000F3020008F3020008F3020008F30200086A
:1002A000F3020008F3020008F3020008F30200085A
:1002B000F3020008F3020008F3020008F30200084A
:1002C000F3020008F3020008F3020008F30200083A
:1002D000F3020008F3020008F3020008F30200082A
:1002E000D50400084D1E00085D2100080000000034
:1002F00002E000F000F8FEE772B6374880F30888A5
:10030000364880F3098836483649086040F20000D4
:10031000CCF200004EF63471CEF200010860BFF35B
:100320004F8FBFF36F8F40F20000C0F2F0004EF627
:100330008851CEF200010860BFF34F8FBFF36F8F7B
:100340004FF00000E1EE100A4EF63C71CEF20001D3
:100350000860062080F31488BFF36F8F04F042F822
:1003600005F02CFA4FF055301F491B4A91423CBF13
:1003700041F8040BFAE71D49184A91423CBF41F885
:10038000040BFAE71A491B4A1B4B9A423EBF51F82D
:10039000040B42F8040BF8E700201849184A914270
:1003A0003CBF41F8040BFAE704F05AF805F07CFA78
:1003B000144C154DAC4203DA54F8041B8847F9E796
:1003C00000F050F8114C124DAC4203DA54F8041B03
:1003D0008847F9E704F042B8000600200022002018
:1003E0000000000808ED00E00000002000060020EA
:1003F00000660008002200205C220020602200200D
:1004000018460020E0020008EC020008EC02000898
:10041000EC0200082DE9F04F2DED108AC1F80CD048
:10042000D0F80CD0BDEC108ABDE8F08F002383F328
:1004300011882846A047002003F0D6F8FEE703F015
:1004400015F800DFFEE70000054B10B50446036019
:10045000806810B103685B689847204610BD00BFF4
:100460006C60000870B500F099FD00F049FF03F0E2
:100470005DFE054603F04AFF0446B8B9134B9D42A2
:1004800016D001339D4241F2883512BF0446002543
:1004900001240F4E002003F053FE304601F0F8FA1D
:1004A00040B944F6206003F0A5F8F6E70025F0E730
:1004B0000546EEE70CB100F08FF800F0F5FE284697
:1004C00000F046F900F088F8F9E700BF010007B036
:1004D000602200200448054B054A036000230549BB
:1004E000836005F0DDBC00BF602200206C60000866
:1004F000642400204904000808B500F021FDA0F1A3
:1005000020035842584108BD07B5042101900DEB66
:10051000010000F033FD03B05DF804FB07B541F2C4
:100520001203022101A8ADF8043000F027FD03B04A
:100530005DF804FB38B5302383F31188174803684E
:100540000BB103F035F90023154A4FF47A711348C3
:1005500003F024F9002383F31188124C236813B1AC
:100560002368013B2360636813B16368013B6360E8
:100570000D4D2B7833B963687BB9022000F0E4FDA0
:10058000322363602B78032B07D163682BB90220D9
:1005900000F0DAFD4FF47A73636038BDF02200207A
:1005A000350500081024002008230020084B18708F
:1005B00003280CD8DFE800F008050208022000F04C
:1005C000B1BD022000F09EBD024B00225A60704770
:1005D0000823002010240020F7B5564801A901F097
:1005E000D7FB002800F0A380534B544A1C461968DF
:1005F000013100F0998004339342F8D16268504B86
:100600009A4240F291804F4B9B6803F1006303F5DF
:1006100000339A4280F08880002000F0E5FC022040
:10062000FFF7C4FF484B0021D3F8E820C3F8E810D7
:10063000D3F81021C3F81011D3F81021D3F8EC200F
:10064000C3F8EC10D3F81421C3F81411D3F8142113
:10065000D3F8F020C3F8F010D3F81821C3F818111C
:10066000D3F81821D3F8802042F00062C3F880202C
:10067000D3F8802022F00062C3F88020D3F88020D5
:10068000D3F8802042F00072C3F88020D3F8802095
:1006900022F00072C3F88020D3F8803072B64FF099
:1006A000E023C3F8084DD4E90004BFF34F8FBFF334
:1006B0006F8F264AC2F88410BFF34F8F536923F41B
:1006C00080335361BFF34F8FD2F8803043F6E0762A
:1006D000C3F3C905C3F34E335B0103EA060C294695
:1006E0004CEA81770139C2F87472F9D2203B13F1D8
:1006F000200FF2D1BFF34F8FBFF36F8FBFF34F8F38
:10070000BFF36F8F536923F4003353610023C2F8A2
:100710005032BFF34F8FBFF36F8F302383F31188B5
:10072000854680F308882047024800F079FE03B030
:10073000F0BD00BF60220020000002082000020877
:10074000FFFF0108002200200044025800ED00E0F5
:100750002DE9F04FB04B9DB02022FF21079014A847
:100760009E68DB68069300F049FDAC4A1378A3B994
:100770000121AB4811700360302383F311880368B3
:100780000BB103F015F80023A64A4FF47A71A44880
:1007900003F004F8002383F31188079B13B1A24BE5
:1007A000079A1A60A14A1378032B03D00023137011
:1007B0009D4A53600023079D1F469B46CDE90433A5
:1007C000012000F0AFFC25B1974B1B68002B00F017
:1007D0005783002000F0B4FB0C900C9B002BF2DB45
:1007E000012000F08FFC0C9B213B1F2BE8D801A2BD
:1007F00052F823F0750800089D0800083309000826
:10080000C1070008C1070008C1070008E10B000884
:10081000FB0D00089D0C0008790D00089F0D0008D5
:10082000C50D0008C1070008D70D0008C107000862
:10083000430E000815090008C1070008870E0008CC
:10084000C7090008FF0A0008C1070008F10C0008EA
:10085000C1070008C1070008C1070008C107000858
:10086000C1070008C1070008C1070008C107000848
:10087000330900080220FFF73FFE002840F02B83D9
:10088000079B0221059A0FA8002A08BF1D4641F2C6
:100890001233ADF83C3000F071FB91E74FF47A7001
:1008A00000F04EFB041EEBDB0220FFF725FE0028C4
:1008B000E6D0013C052C00F21083DFE804F0030AC7
:1008C0000D101337052304210FA80F9300F056FBDA
:1008D00017E004215048F9E704215548F6E70421C0
:1008E0005448F3E74FF01C08404608F1040800F0B4
:1008F0007DFB04210F900FA800F040FBB8F12C0FF6
:10090000F2D10120049B4FF0000B00FA04F41C43C9
:10091000E3B2049300F0BEFC2FB1049B03F00B0381
:100920000B2B08BF0025FFF7F9FD49E704214248DA
:10093000CCE7002FA4D0049B03F00B030B2B9FD11B
:100940000220FFF7D9FD0446002899D00120002796
:1009500000F04AFB0220FFF729FE1FFA87F8404605
:1009600000F052FB0546B0B10C9940460137A1F1A9
:1009700040025142514100F057FB0028EDD105469D
:10098000059441F2121302210FA82746ADF83C301E
:1009900000F0F4FA14E72E460120FFF707FE1E4B85
:1009A0009B68B34207D9304600F020FB013040F08D
:1009B00097820436F3E700261C4B274605941E70E9
:1009C000194B5E60A6E7002F3FF45AAF049B03F07B
:1009D0000B030B2B7FF454AF64210DA800F0C4FA75
:1009E000804600287FF44CAF0220FFF785FD0446C7
:1009F00000283FF445AFDFF848908DF82F80D9F8F4
:100A00002420D9F8203053430D9A93421AD20B4830
:100A100000F0AEFB34E700BF002200200C240020D1
:100A2000F0220020350500081024002008230020B3
:100A300004220020082200200C220020105F000861
:100A400060220020BE484746C24600F091FBFFF7F7
:100A500065FD01210DF12F0000F090FA0D9B53452B
:100A600041D900230EAA39464846CDE90E330FABD3
:100A700000F0DAFC002884D001F0B0FB0E9B00EB04
:100A8000030801210DF12F0000F078FA01F0A6FB18
:100A9000404520D9484600F001FF80B964210D9BF4
:100AA000A848013701FB0AF1B1FBF3F18DF82F10D3
:100AB000C9B200F05DFBD9F820309A44CEE701F0CE
:100AC0008DFB0F9B184440453FF65BAF01F086FB62
:100AD0000E9B00EB03080E9B4FF47A70A3FB000300
:100AE00002F088FDCDE7642301210DF12F00274698
:100AF0008DF82F3000F042FA002306930AE7002F0A
:100B00003FF4BEAE049B03F00B030B2B7FF4B8AE97
:100B10000220FFF74BFD322000F012FA041EFFF610
:100B2000AFAE069BA046E3180893874B089ADB6894
:100B30009A423FF6A5AEB4F5807F3FF7A1AEDFF84D
:100B40000CA24FF000094C450EDD4FF47A7000F016
:100B5000F7F90C900C9B002BFFF692AE0C9B09F161
:100B600001090AF8013BEEE7C820FFF7C5FC04467F
:100B700000283FF485AE0027DFF8D491CDE90E7749
:100B8000B8F1000F02D12746089BB6E70FAB6F4ABA
:100B90000699484602930EAB3A44394401930DAB93
:100BA0000093434601F05CF800283FF4EAAE01F000
:100BB00017FB0D9B8A4609901F44A8EB030801F020
:100BC0000FFB099A0E9B9B184AF10002834272EBBD
:100BD0000103F4D2484600F061FE0028EFD1CFE7D0
:100BE000002F3FF44DAE049B03F00B030B2B7FF45F
:100BF00047AE0220FFF7DAFC322000F0A1F9B0F195
:100C00000008FFF63DAE18F003047FF439AE4E4AFB
:100C100008EB0603926893423FF632AEB8F5807F48
:100C20003FF72EAEDFF82491A0450DDD4FF47A702A
:100C300000F086F90C900C9B002BFFF621AE0C9B6C
:100C4000013409F8013BEFE7C820FFF755FC0446E3
:100C500000283FF415AE1F2E11D8C6F1200214ABA8
:100C600026F0030039494245184428BF42460892FD
:100C700000F092FA089AFF21344800F0BFFAC8F356
:100C80008702324930464FEAA80900F0BFFA07460A
:100C900000283FF476AE06EB89063BE60220FFF71C
:100CA0002BFC00283FF4ECAD00F0DCF900283FF409
:100CB000E7AD0024A046244B9B68A34258D91F2CC3
:100CC00011D8149B01330ED024F003031CAA134443
:100CD00053F8203C0F93404604220FA9043401F03E
:100CE000BDF88046E7E7204600F080F90F90F2E774
:100CF00064210EA800F038F9044600287FF4C0AD46
:100D00000220FFF7F9FB00283FF4BAAD0E9BA04686
:100D1000DFF83CA003F003090E99A1EB0901A14201
:100D200018D9214604230FAA504600F0E5FF40469B
:100D300004220FA901F092F804348046ECE700BFCA
:100D4000355F00084D5F0008002200200C230020C2
:100D500060220020B9F1000F0AD04B460FAA62486A
:100D600000F0CAFF40464A460FA901F077F88046D6
:100D70004046FFF7C9FBCDE5002364210FA80F9380
:100D800000F0F2F800287FF47BAD0220FFF7B4FBFF
:100D900000283FF475AD0F9800F05AF9E9E70023F9
:100DA00064210FA80F9300F0DFF800287FF468ADEE
:100DB0000220FFF7A1FB00283FF462AD0F9800F07E
:100DC00049F9D6E70220FFF797FB00283FF458AD1A
:100DD00000F058F9CDE70220FFF78EFB00283FF422
:100DE0004FAD0FA9142000F053F90890FFF78CFBCA
:100DF00008990FA800F0C2F88CE5322000F0A0F8A6
:100E0000041EFFF63DADA3077FF43AAD374A04EB6D
:100E10000B03926893423FF633AD0220FFF76CFB61
:100E200000283FF42DAD24F003045C44A3453FF4B7
:100E300071AD58460BF1040B00F0D8F8FFF764FBD6
:100E4000F4E74FF47A70FFF757FB00283FF418AD32
:100E500000F008F9002845D0149B01330BD008227C
:100E600014A9002000F0D2F900283BD02022FF2155
:100E700014A800F0C3F9FFF751FB1D4802F0BAFBBC
:100E80001DB0BDE8F08F002F3FF4FAAC049B03F0D7
:100E90000B030B2B7FF4F4AC002364210FA80F93FA
:100EA00000F062F8044600287FF4EAAC0220FFF765
:100EB00023FB804600283FF4E3ACFFF72FFB41F211
:100EC000883002F097FB0F9800F018FA4746254645
:100ED00000F0E0F974E407461CE54FF0000BCFE4A6
:100EE00005944EE53C464CE560220020002200209F
:100EF000A08601000F4B70B51B780C460133DBB2A6
:100F0000012B11D80C4D4FF47A732968A2FB0332E0
:100F100022460E6A01462846B047844204D1074B58
:100F2000002201201A7070BD4FF4FA7002F062FBCB
:100F30000020F8E710220020802700204424002011
:100F4000002307B5024601210DF107008DF8073097
:100F5000FFF7D0FF20B19DF8070003B05DF804FB58
:100F60004FF0FF30F9E700000A46042108B5FFF70B
:100F7000C1FF80F00100C0B2404208BD30B4054C52
:100F80000A46014623682046DD69034BAC4630BC67
:100F9000604700BF80270020A086010070B5104C7C
:100FA0000025104E02F06EFE2080306823888342B8
:100FB0000CD800252088013802F060FE2388054403
:100FC000013BB5F5802F2380F4D370BD02F056FEAF
:100FD000336805440133B5F5003F3360E5D3E8E7F6
:100FE000462400201824002002F01ABF00F10060FF
:100FF00000F500300068704700F10060920000F5D5
:10100000003002F09BBE0000054B1A68054B1B88A0
:101010009B1A834202D9104402F030BE0020704770
:10102000182400204624002038B50446074D29B175
:1010300028682044BDE8384002F038BE28682044C3
:1010400002F022FE0028F3D038BD00BF1824002093
:101050000020704700F1FF5000F58F10D0F8000815
:1010600070470000064991F8243033B1002308226C
:10107000086A81F82430FFF7BFBF0120704700BF26
:101080001C240020014B1868704700BF0010005C52
:10109000194B01380322084470B51D68174BC5F37E
:1010A0000B042D0C1E88A6420BD15C680A46013C3D
:1010B000824213460FD214F9016F4EB102F8016B50
:1010C000F6E7013A03F10803ECD181420B4602D264
:1010D0002C2203F8012B0424094A1688AE4204D1BD
:1010E000984284BF967803F8016B013C02F1040238
:1010F000F3D1581A70BD00BF0010005C142200200C
:10110000885F0008022803D1044B10229A617047BF
:101110000128FCD1024B2022F8E700BF0020025832
:1011200000280258022804D1054B4FF480129A611E
:1011300070470128FCD1034B4FF40012F7E700BFC2
:101140000020025800280258022805D1064A536997
:1011500083F01003536170470128FCD1034A53699F
:1011600083F02003F6E700BF002002580028025851
:101170000FB404B07047000070B504464FF47A769F
:101180004CB1412C254628BF412506FB05F0641BC8
:1011900002F030FAF4E770BD002310B5934203D09B
:1011A000CC5CC4540133F9E710BD0000013810B520
:1011B00010F9013F3BB191F900409C4203D11AB1B3
:1011C0000131013AF4E71AB191F90020981A10BDE3
:1011D0001046FCE70138013910F9013F11F9012FE0
:1011E0000BB19342F8D0981A7047000003460246AC
:1011F000D01A12F9011B0029FAD1704702440346A4
:10120000934202D003F8011BFAE770472DE9F84337
:101210001F4D14460746884695F8242052BBDFF838
:1012200070909CB395F824302BB92022FF214846BA
:101230002F62FFF7E3FF95F824004146C0F1080252
:1012400005EB8000A24228BF2246D6B29200FFF7EB
:10125000A3FF95F82430A41B17441E449044E4B225
:10126000F6B2082E85F82460DBD1FFF7FBFE0028DC
:10127000D7D108E02B6A03EB82038342CFD0FFF77C
:10128000F1FE0028CBD10020BDE8F8830120FBE768
:101290001C240020024B1A78024B1A70704700BFC2
:1012A000442400201022002010B5114C114801F0F8
:1012B00007FC21460F4801F02FFC24684FF47A7098
:1012C000D4F89020D2F8043843F00203C2F804386E
:1012D000FFF752FF0849204601F02CFDD4F890207A
:1012E000D2F8043823F00203C2F8043810BD00BF5E
:1012F00050630008802700205863000870470000F2
:10130000F0B5A1B071B600230120002480261A4652
:10131000194601F0C7F94FF4D067214A3D251369FA
:1013200023BBD2F810310BBB036804F10061996054
:101330000368C3F80CD003685E6003681F6001682F
:101340000B6843F001030B6001680B6823F01E0378
:101350000B6001680B68DB07FCD4037B80344168B9
:1013600005FA03F3B4F5001F0B60D8D101F0DAF9E8
:10137000B4F5001F11D000240A4E0B4D012002F0DD
:101380004FFD3388A34205D928682044013402F078
:101390008DFCF6E7002002F043FD61B621B0F0BD00
:1013A0000020005246240020182400208069704745
:1013B000C0697047006A7047406A7047806A70472A
:1013C000F0B5ADF2044D0E46054600214FF47F7294
:1013D00001A80091FFF712FF2C6A744301362B6AB3
:1013E0007343A34216D92B686A46214628465F6894
:1013F0004FF48063B84770B16A464FF4806312F8C7
:10140000011BFF290AD1013B9BB2002BF7D104F548
:101410008064E4E701200DF2044DF0BD0020FAE7FE
:1014200080680368DB69184730B5456A85B00446B3
:101430008D420FD30568CDE90023026A03ABAD6A84
:101440005143A84720B1206A039BC31A5842584110
:1014500005B030BD0020FBE7F0B5C56987B0044694
:101460008D4212D30C9F866905687143CDE901371F
:1014700005AB00936D69036AA84720B1A069059B7D
:10148000C31A5842584107B0F0BD0020FBE70000E6
:10149000F0B5662389B0002405464FF48076806855
:1014A000079403A9CDE90336CDE9054403685B69D8
:1014B0009847A86822462146036800941F6923467E
:1014C000B847A8689923079403A9CDE90336CDE965
:1014D000054403685B699847A8682246214603686B
:1014E00000941D692346A84709B0F0BD254B2DE99E
:1014F000F04F1B789FB0002504468DF828304FF040
:101500009F0E80684FF00123ADF8295005A9099579
:10151000CDE905E3CDE9075503685B699847A06805
:1015200003222946036800922A461E690AABB04787
:1015300030B394F88C200C21134B01FB02339DF83F
:1015400028101A7991421BD19DF829205B799A4283
:1015500016D1A0684FF05A0C0C4B082605A9099625
:10156000CDE905C3CDE9075503685B699847A068D5
:101570002A462946036800961F690AABB84738B95E
:1015800000204BE1F85E00084060000800250001E3
:101590000422B3490AA804F097FC05460028EFD1BD
:1015A000BDF82C306FF48277A3813B44012BE7D840
:1015B000079605A9CDE90A00A06803685B6998470A
:1015C000A0682A462946036800961E690AABB04700
:1015D0000028D5D0DDE90A361A0202F4706242EA28
:1015E0001662FF2ACCD11B0E26F07F4650222946D8
:1015F000142B26610AA828BF1423A373FFF7FEFD4E
:10160000A068079605A903685B699847A068A37B53
:10161000294602689B0000930AAB16692A46B04728
:101620000028ADD00B990029AADBC9086FF07E43D2
:10163000149D4FF0010E994228BF1946C5F30313BC
:101640000EFA03F221FA03F303916161A261E361EF
:10165000002B95D02646A44600274FF002081EAA6C
:10166000C7F3460302EB830353F834AC07F00103DE
:101670001B01DA1D0EFA03F908FA02F2A2EB0902C5
:1016800002EA0A02DA401AD003F108090F330EFA0F
:1016900002F2216A08FA03F30EFA09FBCCF83020B3
:1016A0008A42A3EB0B0B0BEA0A0A2AFA09F98CF817
:1016B0002C90A36A88BF2262934288BFA26201373E
:1016C0000CF1100C042FCAD1236A4FF0020C039ABC
:1016D0004FF0010E139F9A4224BFB2FBF3F16162F7
:1016E00007F00F0138BF01234FF0090201F101019A
:1016F00038BF63624900336B33B3531C0EFA02F8F0
:10170000A2F105090CFA03F30EFA09FAA3EB080398
:1017100002F1FF380CFA08F83B40A8EB0A08D34066
:1017200008EA070828FA09F87BD0012B7BD0022BA6
:101730007BD0032B08BF4FF47A735FFA88F808FB5D
:10174000033373634B43B36307321036252AD2D178
:1017500015F0C04FC5F3417369D0012B69D0022B3E
:101760000CBF4FF47A634FF47A43C5F3046202FB73
:101770000333E3664B432367199B9E075CD0062324
:1017800084F8743015F4005F05F00F03C5F30425E9
:1017900014BF40220822013305FB02255B00A56728
:1017A0005D430A9B9F02E5677FF5EAAE0C9BC3F39E
:1017B0000722C3F3421103F01F0384F8802084F84A
:1017C000881084F88130002A3FF4DAAE189BC3F306
:1017D000025213F4401F84F883207FF4D1AEDE065A
:1017E00002D5042A7FF4CCAE03F40072002A14BFA1
:1017F0000122002284F8872004D0DD0324D50023B1
:1018000084F88930179B1A0722D5002384F8863084
:10181000702384F88530012384F88D301FB0BDE833
:10182000F08F012389E7102387E7802385E71023C2
:101830009BE74FF4807398E7590701D550239FE742
:1018400013F0780F9ED09BE69903DBD50123D7E7F1
:101850005B07E0D5012384F886300523D9E700BF74
:10186000985F000830B58BB000240546806803926D
:101870004FF00122059105A9CDE90624CDE90844E0
:10188000026852699047A8680121039B0268009191
:10189000214615692246A8470BB030BD13B5044652
:1018A000A0680368DB6C98470028F9D10DF10702A6
:1018B00094F885102046FFF7D5FF94F886309DF800
:1018C00007001BB100F0010002B010BDC043C0F31F
:1018D000C010F9E730B54FF001238BB00024054666
:1018E00080688DF80F20059105A9CDE90634CDE972
:1018F000084403685B699847A86801220DF10F014D
:10190000036800941D692346A8470BB030BD000052
:10191000F7B517460DF1070206461D46FFF7A2FF71
:1019200068B19DF8074039469DF82020304624EAEA
:1019300005042A4022438DF80720FFF7CBFF03B0B0
:10194000F0BD000030B54FF4807389B00024054627
:101950008068039103A9CDE90434CDE90644036806
:101960005B699847A86822462146036800941D6970
:101970002346A84709B030BD10B504462368204669
:10198000DB6A98470028F9D110BD000010B590F827
:10199000743004465BB1FFF7EFFF012394F8741035
:1019A000204684F88E30BDE81040FFF7CBBF012001
:1019B00010BD000010B590F87430044653B1FFF725
:1019C000DBFF01232046042184F88E30BDE810405F
:1019D000FFF7B8BF012010BDF0B590F883308BB091
:1019E0000446042B50D100270DF10E0205218DF87D
:1019F0000E708DF80F70FFF735FF00282FD00DF116
:101A00000F0235212046FFF72DFF40B320461F4E21
:101A1000FFF7BCFF2046FFF7AFFF05AD0FCE0FC5A8
:101A2000336805A99DF80E202B609DF80F30A06843
:101A300043F002038DF810208DF80F308DF811302F
:101A400003685B699847A068022204A903680097AD
:101A50001D693B46A84720B92046FFF7ABFF002091
:101A600010E02046FFF7A6FF0DF10F0235212046BA
:101A7000FFF7F8FE0028F2D09DF80F309B07EED557
:101A8000012363600BB0F0BD0120FBE7FC5E0008A2
:101A90002DE9F341002304468068A36010B1036878
:101AA0005B6898470025264E264F0C2301A839462F
:101AB0005FFA85F86B439A5900F072FA019BA068AF
:101AC0000022A360019210B103685B6898470198F7
:101AD00010B103685B689847A368E3B141F28830AE
:101AE00084F88C8001F086FD2046FFF7D1FC1E2093
:101AF00001F080FD2046FFF7F9FC054688B994F80F
:101B00008C300C2210485343F158FFF731FB284624
:101B100002B0BDE8F0810135032DC6D10B4800F0BD
:101B200057FB2046FFF758FF0C2294F88C300546EF
:101B30005343F15808B90648E7E70648E5E700BF10
:101B40004060000848240020A05F000816600008DC
:101B5000CA5F0008F45F00082DE9F041044688B030
:101B60000F461646FFF712FF2046FFF705FF002538
:101B7000C722A0684FF48073079503A9CDE903231A
:101B8000CDE9055503685B699847A0682A46294650
:101B900003680095D3F810802B46C047054630B93E
:101BA0002046FFF707FF284608B0BDE8F081E36E46
:101BB0003B60236F3360F3E72DE9F041002588B0E7
:101BC0001F4604460E460E9B00F1400CA8463D60A1
:101BD000016B81B1A9420ED391420CD8B6FBF1FE44
:101BE00001FB1E6139B9416B90F82C800F9D196083
:101BF000816B2960154610306045E9D16DB3AB1992
:101C00006269934229D82046FFF7C0FE2046FFF7BD
:101C1000B3FE4FF41453A06803A9CDF80C80CDE9AE
:101C200004360026CDE9066603685B699847A0681C
:101C30003246314603680096D3F810803346C047D9
:101C4000064620462EB9FFF7B5FE304608B0BDE87F
:101C5000F081FFF7AFFE3D60F7E70026F5E70000F3
:101C60002DE9F0418669054688B00F46B34290469B
:101C7000B1FBF6FC06FB1C1C28BF3346A6EB0C0C84
:101C800000269C45644628BF1C46FFF77FFE284679
:101C9000FFF772FE0222A86803A9164B0597CDE94B
:101CA0000323CDE9066603685B699847A868224666
:101CB0004146036800961F693346B84706462846E2
:101CC0002EB9FFF777FE304608B0BDE8F081FFF788
:101CD00071FE0E9B1C60AB6FAA696343B3FBF2F30A
:101CE0000F9A1360EA6F109B5443AA69B4FBF2F495
:101CF0001C60E8E7002500012DE9F04FCE1843698C
:101D000089B004469E420F46914639D83D464FF46D
:101D10000458DFF878A0FFF72FFEAE4234D994F8CC
:101D20008030A6EB050B94F8882003A903930023C9
:101D3000BBF5806FA0680693636828BF4FF4806B83
:101D40000595012B14BF43465346012A049394F88A
:101D5000813008BF03F1FF33079303685B6998473D
:101D6000A068A9EB07030268CDF800B02B44D2F8B5
:101D700010B000221146D84718B105F58065CCE7B0
:101D8000002009B0BDE8F08F0120FAE700ED000364
:101D9000F0B5044689B00E46FFF7EEFD94F8875083
:101DA0002DB194F889302BB1012B24D00025284681
:101DB00009B0F0BD94F880300393F02306934FF4FC
:101DC000045304936368012B04BF1D4B0493002349
:101DD000059394F88130A06803A9079303685B69B1
:101DE0009847A068314603689B6998470546642078
:101DF00001F000FCDBE720460027FFF7C7FD204687
:101E0000FFF7BAFD08238122852120460097FFF7BE
:101E10007FFD054618B92046FFF7CCFDC7E794F8CB
:101E2000803006970393074B04936368012B04BF2C
:101E3000054B04930023059394F88130013BCAE7D6
:101E400000ED00030021001000ED0013014B024AD9
:101E50001A607047482400206861000830B50A44C1
:101E6000084D91420DD011F8013B5840082340F332
:101E70000004013B2C4013F0FF0384EA5000F6D12C
:101E8000EFE730BD2083B8ED7047000070470000D9
:101E9000002070470020704713B56C4600F1140312
:101EA00084E8060094E8030083E8050002B010BD52
:101EB0000020704713B56C4600F10C0384E806005F
:101EC00094E8030083E8050002B010BD0023C0E9D8
:101ED0000333704782B002AB03E9060002B07047DB
:101EE00070470000002070477047000000207047D6
:101EF000002070470120704782B0002002A901E94C
:101F00000C0002B0704700000020704700207047AE
:101F1000036B1A79034B53F832309B699868C0F30E
:101F200040107047006100080B6883634B6843638F
:101F30008B68C363CB6803640B694364704700001C
:101F400038B5036B0446154D1B7955F8330001F085
:101F5000F1F9D4E90B231B7955F8331002F1300362
:101F60004968994218D000231363E26A5363D4E9A5
:101F70000B12537C581E137C92681B0443EA002307
:101F800013438B63D4E90B131B79303155F83300BD
:101F9000BDE8384001F062B938BD00BF00610008FB
:101FA000F8B51D4F05460E4611463868FFF712F981
:101FB00078BB74683B7924B394F82C209A420BD0F8
:101FC0002468F8E70122B52100F018F9736823604E
:101FD0003B79746084F82C30482000F003F968B134
:101FE00000220271C0E90322C0E90522027A42F010
:101FF00007020272094AC0E90B47026028602846BE
:10200000F8BD402000F0EEF804460028DAD12C603C
:10201000F5E700232B60F2E7502400201061000850
:10202000044B10B504460360406A08B100F0E4F8C0
:10203000204610BDB460000810B50446FFF7F0FF5D
:10204000204600F0D5F8204610BD000008B519B1B3
:10205000FFF776FF012008BD036B1A79024B53F896
:10206000320001F06BF9F5E7006100082DE9FF414E
:10207000DDF828800546174603911FFA88F602937B
:10208000FFF75EFF02ABBAB203A9E86A009600F060
:10209000C9F8044638B900212846FFF7D7FF204683
:1020A00004B0BDE8F081AFB92B6B05F134011A79AA
:1020B000134B53F83200B8F1000F19D101F0DCF8DE
:1020C00080F00104E4B23346E86ADDE9022100F061
:1020D000CFF8E0E7029B83B92B6B3A46084805F13D
:1020E00034011C79039B50F8340001F0DBF8E7E77A
:1020F000029B424601F0ECF8E2E70024E3E700BF70
:102100000061000813B504460191FFF719FF019A19
:10211000236B04F134011879054B53F8300001F0BA
:10212000EDF800212046FFF791FF012002B010BD1D
:102130000061000810B50446FFF702FF236B1A790F
:10214000054B53F8320001F0E7F800212046FFF775
:102150007DFF012010BD00BF00610008054B064A4D
:102160001A6000221A719A60044ADA6040F21F4233
:102170001A827047502400203260000800E1F50503
:1021800000B59BB0EFF3098168226846FFF704F8B9
:10219000EFF30583014B9B6BFEE700BF00ED00E012
:1021A00008B5FFF7EDFF000000B59BB0EFF3098124
:1021B00068226846FEF7F0FFEFF30583014B5B6B87
:1021C000FEE700BF00ED00E0FEE70000FEE70000D4
:1021D0000FB408B5029801F0B3F9FEE701F048BF6B
:1021E00001F02ABF0121884238BF084601F0F2BE43
:1021F00008B101F0F3BE7047FFF7FABF38B5084BDE
:1022000004461546017543600A21243001F0CCFFD5
:1022100004F128002A460A2101F0C6FF204638BDF5
:102220007C610008F8B51E461B6805460C4617463B
:102230001BB9236863B9012408E0BDF818203146B2
:10224000806A01F0C9FF0028F3D100242046F8BDC0
:1022500021463A46686A02F005F804460028EAD1A9
:102260003368002BF1D0A86A02F040F8EEE70000D6
:1022700038B50D46114604461A4611B1806A01F080
:10228000E3FF2DB12946606ABDE8384002F026B868
:1022900038BD0000036800211B68184703790BB1A3
:1022A000002202711846704703685B6818470000F7
:1022B00003791BB90123037118467047002070474A
:1022C0007047000010B50446FFF792FF204610BD8E
:1022D00008B5074B074A196801F03D01996053683A
:1022E0000BB190689847BDE8084002F051B800BFB4
:1022F000000002406824002008B5084B19688909CD
:1023000001F03D018A019A60054AD3680BB110695A
:102310009847BDE8084002F03BB800BF000002400B
:102320006824002008B5084B1968090C01F03D012C
:102330000A049A60054A53690BB190699847BDE851
:10234000084002F025B800BF0000024068240020C9
:1023500008B5084B1968890D01F03D018A059A609E
:10236000054AD3690BB1106A9847BDE8084002F0EE
:102370000FB800BF000002406824002008B5074BDA
:10238000074A596801F03D01D960536A0BB1906A60
:102390009847BDE8084001F0FBBF00BF00000240C5
:1023A0006824002008B5084B5968890901F03D01EF
:1023B0008A01DA60054AD36A0BB1106B9847BDE811
:1023C000084001F0E5BF00BF000002406824002083
:1023D00008B5084B5968090C01F03D010A04DA60A0
:1023E000054A536B0BB1906B9847BDE8084001F06C
:1023F000CFBF00BF000002406824002008B5084B92
:102400005968890D01F03D018A05DA60054AD36BF0
:102410000BB1106C9847BDE8084001F0B9BF00BF90
:10242000000002406824002008B5074B074A1968DD
:1024300001F03D019960536C0BB1906C9847BDE879
:10244000084001F0A5BF00BF00040240682400203E
:1024500008B5084B1968890901F03D018A019A60A5
:10246000054AD36C0BB1106D9847BDE8084001F0E8
:102470008FBF00BF000402406824002008B5084B4D
:102480001968090C01F03D010A049A60054A536D70
:102490000BB1906D9847BDE8084001F079BF00BFCF
:1024A000000402406824002008B5084B1968890D13
:1024B00001F03D018A059A60054AD36D0BB1106E9B
:1024C0009847BDE8084001F063BF00BF0004024028
:1024D0006824002008B5074B074A596801F03D0100
:1024E000D960536E0BB1906E9847BDE8084001F07B
:1024F0004FBF00BF000402406824002008B5084B0D
:102500005968890901F03D018A01DA60054AD36EF4
:102510000BB1106F9847BDE8084001F039BF00BF0C
:10252000000402406824002008B5084B5968090CD3
:1025300001F03D010A04DA60054A536F0BB1906F58
:102540009847BDE8084001F023BF00BF00040240E7
:102550006824002008B5084B5968890D01F03D0139
:102560008A05DA60054AD36F13B1D2F88000984724
:10257000BDE8084001F00CBF0004024068240020C0
:1025800000230C4910B51A460B4C0B6054F823007D
:10259000026001EB430004334260402BF6D1074A4E
:1025A0004FF0FF339360D360C2F80834C2F80C34A4
:1025B00010BD00BF682400209461000800000240A4
:1025C0000F28F8B510D9102810D0112811D01228D2
:1025D00008D10F240720DFF8C8E00126DEF80050FC
:1025E000A04208D9002653E00446F4E70F24002057
:1025F000F1E70724FBE706FA00F73D424AD1264CF3
:102600004FEA001C3D4304EB00160EEBC000CEF871
:102610000050C0E90123FBB273B12048D0F8D83094
:1026200043F00103C0F8D830D0F8003143F0010383
:10263000C0F80031D0F8003117F47F4F0ED01748A2
:10264000D0F8D83043F00203C0F8D830D0F80031C9
:1026500043F00203C0F80031D0F8003154F80C0008
:10266000036823F01F030360056815F00105FBD123
:1026700004EB0C033D2493F80CC05F6804FA0CF4DF
:102680003C6021240560446112B1987B00F070F930
:102690003046F8BD0130A3E79461000800440258B9
:1026A0006824002010B5302484F31188FFF788FFD8
:1026B000002383F3118810BD10B50446807B00F021
:1026C0006DF901231549627B03FA02F20B6823EAD4
:1026D0000203DAB20B6072B9114AD2F8D81021F0B5
:1026E0000101C2F8D810D2F8001121F00101C2F89E
:1026F0000011D2F8002113F47F4F0ED1084BD3F80C
:10270000D82022F00202C3F8D820D3F8002122F00A
:102710000202C3F80021D3F8003110BD6824002064
:102720000044025808B5302383F31188FFF7C4FF33
:10273000002383F3118808BD8A0710B504461DD510
:102740000378042B1AD143681B682BB10522027051
:1027500098472378052B01D102232370302383F37C
:102760001188002104F1080000F05EFF002383F3CC
:102770001188E069BDE8104001F090BFCB0704D597
:102780000248BDE8104000F0DBBE10BD94620008B6
:1027900010B5044C204600F059FD034A0023C4E95B
:1027A000062310BDEC2400200050005210B5037821
:1027B0000446012B17D1104B984214D102460F4901
:1027C000102001F037FF0E4BE061D3F8D42042F423
:1027D0008042C3F8D420D3F8FC2042F48042C3F8EE
:1027E000FC20D3F8FC306268A36992685A60054AFD
:1027F0001A601B22DA6010BDEC2400203927000883
:10280000004402581500020182691B2310B5D360F1
:10281000D1E9003013F44C4406D19B011461D0611E
:1028200003F44043536110BD0024184313F4406F78
:102830001461CC68D4615061F5D08B689361F2E784
:1028400030B584691B25C069E5600068836104F1C7
:102850002003C36102234261013A03614223C36042
:1028600016238362CB682261E361D1E9002313431D
:1028700012F4406F636101D08B68A361C36843F0B9
:102880000103C36030BD000030B5D0E906400068E8
:1028900004F120058561C36108234261013A0361A7
:1028A00046230D69C36016238362CB682261E3610E
:1028B000D1E90023134312F4406F43EA854343F008
:1028C0008063636101D08B68A361C36843F0010337
:1028D000C36030BD8069036823F0040310B5CC6881
:1028E000036000230361C4618361D1E90043096986
:1028F000234343EA814343F04063436112B14FF005
:102900001043136010BD000083691A6842F0020290
:102910001A601A689207FCD41A6842F004021A601E
:10292000704700008269936810B5D3609B07044626
:102930001DD50378032B1AD143681B682BB10522E0
:10294000027098472378052B01D10223237030238E
:1029500083F31188002104F1080000F065FE0023D4
:1029600083F31188E069BDE8104001F097BE10BD07
:10297000090100F16043012203F56143C9B283F804
:10298000001300F01F039A4043099B0003F16043CA
:1029900003F56143C3F880211A60704700F01F03FC
:1029A00001229A40430900F160409B0000F561401C
:1029B00003F1604303F56143C3F88020C3F880212D
:1029C000002380F8003370470268436811430160B8
:1029D00003B118477047000013B5406B00F58054F1
:1029E000D4F8A4381A681178042914D1017C02297A
:1029F00011D11979012312898B4013420BD101A9FE
:102A00004C3002F093FCD4F8A4480246019B217993
:102A1000206800F0DFF902B010BD0000143002F0B1
:102A200015BC00004FF0FF33143002F00FBC000063
:102A30004C3002F0E7BC00004FF0FF334C3002F0A6
:102A4000E1BC0000143002F0E3BB00004FF0FF31A6
:102A5000143002F0DDBB00004C3002F0B3BC0000CB
:102A60004FF0FF324C3002F0ADBC00000020704748
:102A700010B500F58054D4F8A4381A6811780429E8
:102A800017D1017C022914D15979012352898B4035
:102A900013420ED1143002F075FB024648B1D4F84F
:102AA000A4484FF4407361792068BDE8104000F0FD
:102AB0007FB910BD406BFFF7DBBF0000704700001F
:102AC0007FB5124B012504260446036000230574DC
:102AD00000F1840243602946C0E902330C4B0290A6
:102AE000143001934FF44073009602F027FB094B1A
:102AF00004F69442294604F14C000294CDE90063A7
:102B00004FF4407302F0EEFB04B070BDA462000805
:102B1000B52A0008D92900080A68302383F31188F0
:102B20000B790B3342F823004B79133342F823001F
:102B30008B7913B10B3342F8230000F58053C3F8AF
:102B4000A41802230374002080F31188704700004A
:102B500038B5037F044613B190F85430ABB9012562
:102B6000201D0221FFF730FF04F114006FF0010176
:102B7000257700F07FFD04F14C0084F854506FF08D
:102B80000101BDE8384000F075BD38BD10B5012128
:102B900004460430FFF718FF0023237784F85430ED
:102BA00010BD000038B504460025143002F0DEFAEE
:102BB00004F14C00257702F0ADFB201D84F8545041
:102BC0000121FFF701FF2046BDE83840FFF750BF65
:102BD00090F8803003F06003202B06D190F881201C
:102BE0000023212A03D81F2A06D800207047222A52
:102BF000FBD1C0E91D3303E0034A42670722826725
:102C0000C3670120704700BF2C22002037B500F5B4
:102C10008055D5F8A4381A68117804291AD1017C96
:102C2000022917D11979012312898B40134211D13E
:102C300000F14C04204602F02DFC58B101A92046B9
:102C400002F074FBD5F8A4480246019B2179206864
:102C500000F0C0F803B030BD01F10B03F0B550F83F
:102C6000236085B004460D46FEB1302383F31188FE
:102C700004EB8507301D0821FFF7A6FEFB6806F16F
:102C80004C005B691B681BB1019002F05DFB019871
:102C900003A902F04BFB024648B1039B294620469C
:102CA00000F098F8002383F3118805B0F0BDFB68AD
:102CB0005A691268002AF5D01B8A013B1340F1D1F2
:102CC00004F18002EAE70000133138B550F82140E2
:102CD000ECB1302383F3118804F58053D3F8A42892
:102CE0001368527903EB8203DB689B695D6845B129
:102CF00004216018FFF768FE294604F1140002F071
:102D00004BFA2046FFF7B4FE002383F3118838BD49
:102D10007047000001F018BD01234022002110B5CA
:102D2000044600F8303BFEF769FA0023C4E901339A
:102D300010BD000010B53023044683F3118824220F
:102D4000416000210C30FEF759FA204601F01EFDCB
:102D500002230020237080F3118810BD70B500EBB2
:102D60008103054650690E461446DA6018B11022F8
:102D70000021FEF743FAA06918B110220021FEF7E6
:102D80003DFA31462846BDE8704001F005BE00001E
:102D900083682022002103F0011310B504468360EC
:102DA0001030FEF72BFA2046BDE8104001F080BE3F
:102DB000F0B4012500EB810447898D40E4683D4370
:102DC000A469458123600023A2606360F0BC01F028
:102DD0009DBE0000F0B4012500EB810407898D4001
:102DE000E4683D436469058123600023A260636059
:102DF000F0BC01F013BF000070B5022300250446AB
:102E0000242203702946C0F888500C3040F8045C36
:102E1000FEF7F4F9204684F8705001F051FD636824
:102E20001B6823B129462046BDE87040184770BD95
:102E30000378052B10B504460AD080F88C300523A2
:102E4000037043681B680BB1042198470023A360FB
:102E500010BD00000178052906D190F88C20436848
:102E600002701B6803B118477047000070B590F8F6
:102E70007030044613B1002380F8703004F18002F2
:102E8000204601F039FE63689B68B3B994F880303E
:102E900013F0600535D00021204602F02BF9002107
:102EA000204602F01BF963681B6813B10621204617
:102EB0009847062384F8703070BD20469847002854
:102EC000E4D0B4F88630A26F9A4288BFA36794F921
:102ED0008030A56F002B4FF0300380F20381002D6E
:102EE00000F0F280092284F8702083F31188002119
:102EF0002046D4E91D23FFF76DFF002383F31188DB
:102F0000DAE794F8812003F07F0343EA022340F2DA
:102F10000232934200F0C58021D8B3F5807F48D0BB
:102F20000DD8012B3FD0022B00F09380002BB2D1A3
:102F300004F1880262670222A267E367C1E7B3F582
:102F4000817F00F09B80B3F5407FA4D194F882305C
:102F5000012BA0D1B4F8883043F0020332E0B3F57E
:102F6000006F4DD017D8B3F5A06F31D0A3F5C06373
:102F7000012B90D86368204694F882205E6894F80C
:102F80008310B4F88430B047002884D04368636766
:102F90000368A3671AE0B3F5106F36D040F602421B
:102FA00093427FF478AF5C4B63670223A3670023EF
:102FB000C3E794F88230012B7FF46DAFB4F888300A
:102FC00023F00203A4F88830C4E91D55E56778E7CB
:102FD000B4F88030B3F5A06F0ED194F8823020465B
:102FE00084F88A3001F0CAFC63681B6813B10121C0
:102FF00020469847032323700023C4E91D339CE730
:1030000004F18B0363670123C3E72378042B10D1FA
:10301000302383F311882046FFF7BAFE85F3118829
:103020000321636884F88B5021701B680BB1204624
:10303000984794F88230002BDED084F88B3004233C
:10304000237063681B68002BD6D002212046984766
:10305000D2E794F8843020461D0603F00F010AD50C
:1030600001F03CFD012804D002287FF414AF2B4B63
:103070009AE72B4B98E701F023FDF3E794F88230B1
:10308000002B7FF408AF94F8843013F00F01B3D015
:103090001A06204602D502F045F8ADE702F036F8F0
:1030A000AAE794F88230002B7FF4F5AE94F88430D0
:1030B00013F00F01A0D01B06204602D502F01AF82B
:1030C0009AE702F00BF897E7142284F8702083F354
:1030D00011882B462A4629462046FFF769FE85F3CC
:1030E0001188E9E65DB1152284F8702083F3118818
:1030F00000212046D4E91D23FFF75AFEFDE60B22EE
:1031000084F8702083F311882B462A4629462046EE
:10311000FFF760FEE3E700BFD4620008CC6200085E
:10312000D062000838B590F870300446002B3ED0CD
:10313000063BDAB20F2A34D80F2B32D8DFE803F07F
:103140003731310822323131313131313131373794
:10315000856FB0F886309D4214D2C3681B8AB5FBD8
:10316000F3F203FB12556DB9302383F311882B461C
:103170002A462946FFF72EFE85F311880A2384F894
:1031800070300EE0142384F87030302383F31188FC
:10319000002320461A461946FFF70AFE002383F350
:1031A000118838BDC36F03B198470023E7E70021BA
:1031B000204601F09FFF0021204601F08FFF636849
:1031C0001B6813B10621204698470623D7E7000065
:1031D00010B590F870300446142B29D017D8062B60
:1031E00005D001D81BB110BD093B022BFBD8002133
:1031F000204601F07FFF0021204601F06FFF636849
:103200001B6813B1062120469847062319E0152BA9
:10321000E9D10B2380F87030302383F31188002329
:103220001A461946FFF7D6FD002383F31188DAE723
:10323000C3689B695B68002BD5D1C36F03B1984706
:10324000002384F87030CEE7FFF7A2BA01210023F3
:103250000170C0E901330C3000F01CB910B5302307
:10326000044683F311884160FFF7A0FA022300208F
:10327000237080F3118810BD10B53023044683F30A
:103280001188032304F8083BFFF7BEFA4FF0FF3123
:10329000204600F0BBF9002383F31188C01A18BF41
:1032A000012010BD38B50446302585F3118803256B
:1032B00004F8085BFFF7C4FA4FF0FF31204600F036
:1032C000A5F9002383F31188C01A18BF012038BD67
:1032D00038B50446302585F31188042504F8085BC9
:1032E000FFF7D2FA4FF0FF31204600F08FF90023AC
:1032F00083F31188C01A18BF012038BD10B53023E0
:10330000044683F31188FFF7E5FA062323700023B0
:1033100083F3118810BD000010B53023044683F3F9
:103320001188FFF7F1FA02232370002383F3118839
:1033300010BD00000C3000F0C9B800000C3000F0E7
:10334000CFB8000000238268037503691B68996881
:103350009142FBD25A680360426010605860704727
:1033600000238268037503691B6899689142FBD842
:103370005A680360426010605860704708B508469C
:10338000302383F311880A7D0023052A06D8DFE85D
:1033900002F00B050503120E826913604FF0FF3334
:1033A0008361FFF7CFFF002383F3118808BD826993
:1033B000936801339360D0E9003213605A60EDE7FF
:1033C000FFF7C0BF054BD9680875186802685360DD
:1033D0001A600122D8600275FDF71CB81025002084
:1033E0000C4B30B5DD684B1C87B004460FD02B4624
:1033F000094A684600F0D2F92046FFF7E3FF009B38
:1034000013B1684600F0D4F9A86907B030BDFFF7E2
:10341000D9FFF9E7102500207D33000838B50C4DA1
:1034200004468161EB6881689A68914203D8BDE8DF
:103430003840FFF787BF1846FFF792FF0123014688
:10344000EC6020462375BDE83840FCF7E3BF00BFC1
:1034500010250020044B1A68DB6890689B6898422E
:1034600094BF00200120704710250020084B10B5A4
:103470001C68D868226853601A600122DC602275DB
:10348000FFF76EFF01462046BDE81040FCF7C2BFC3
:1034900010250020C0E90000816070478368013B6F
:1034A000002B10B583600CDA074BDC684368A06121
:1034B000206063601C6044600520FFF783FFA06903
:1034C00010BD0020FCE700BF1025002008B5302308
:1034D00083F31188FFF7E2FF002383F3118808BD0F
:1034E00008B5302383F3118883680133002B836090
:1034F00007DC036800211A68026050601846FFF775
:103500008DFF002383F3118808BD000038B5012327
:10351000084C00252370656001F0F8FF02F01EF8EA
:103520000549064802F0F2F80223237085F311885A
:1035300038BD00BF78270020DC620008102500207D
:1035400008B572B6044B186500F04CFD00F02AFE79
:10355000024B03221A70FEE7102500207827002076
:1035600000F05CB9034A516853685B1A9842FBD873
:10357000704700BF001000E08B600223086108461E
:103580008B8270478368A3F1840243F8142C02698C
:1035900043F8442C426943F8402C094A43F8242C50
:1035A000C268A3F1200043F8182C022203F80C2C67
:1035B000002203F80B2C034A43F8102C704700BF7D
:1035C0002D0400081025002008B5FFF7DBFFBDE83B
:1035D0000840FFF7F5BE0000024BDB6898610F2042
:1035E000FFF7F0BE10250020302383F31188FFF78A
:1035F000F3BF000008B50146302383F3118808208B
:10360000FFF7EEFE002383F3118808BD054BDB684E
:1036100021B1036098610320FFF7E2BE4FF0FF3055
:10362000704700BF1025002003682BB10022026004
:1036300018469961FFF7C4BE70470000064BDB686F
:1036400039B1426818605A60136043600420FFF784
:10365000C7BE4FF0FF307047102500200368984226
:1036600006D01A680260506018469961FFF7A8BE3C
:103670007047000038B504460D462068844200D1EA
:1036800038BD036823605C608561FFF799FEF4E74D
:10369000036810B59C68A2420CD85C688A600B6015
:1036A0004C602160596099688A1A9A604FF0FF3324
:1036B000836010BD121B1B68ECE700000A2938BFAD
:1036C0000A2170B504460D460A26601901F018FF5C
:1036D00001F000FF041BA54203D8751C04462E46CA
:1036E000F3E70A2E04D90120BDE8704002F04EB87D
:1036F00070BD0000F8B5144B0D460A2A4FF00A07BA
:10370000D96103F11001826038BF0A224160196952
:103710001446016048601861A81801F0E1FE01F04C
:10372000D9FE431B0646A34206D37C1C2819274614
:10373000354601F0E5FEF2E70A2F04D90120BDE885
:10374000F84002F023B8F8BD10250020F8B5064671
:103750000D4601F0BFFE0F4A134653F8107F9F42FB
:1037600006D12A4601463046BDE8F840FFF7C2BF01
:10377000D169BB68441A2C1928BF2C46A34202D930
:103780002946FFF79BFF224631460348BDE8F84033
:10379000FFF77EBF1025002020250020C0E903236D
:1037A000002310B45DF8044B4361FFF7CFBF000066
:1037B00010B5194C236998420DD08168D0E90032C8
:1037C00013605A609A680A449A60002303604FF0BD
:1037D000FF33A36110BD0268234643F8102F5360E6
:1037E0000022026022699A4203D1BDE8104001F034
:1037F00081BE936881680B44936001F06BFE22697F
:10380000E1699268441AA242E4D91144BDE810402B
:10381000091AFFF753BF00BF102500202DE9F0471C
:10382000DFF8BC8008F110072C4ED8F8105001F0DA
:1038300051FED8F81C40AA68031B9A423ED8144493
:103840004FF00009D5E90032C8F81C4013605A60F7
:10385000C5F80090D8F81030B34201D101F04AFE0B
:1038600089F31188D5E9033128469847302383F33B
:1038700011886B69002BD8D001F02CFE6A69A0EB8F
:10388000040982464A450DD2022001F07FFF002242
:10389000D8F81030B34208D151462846BDE8F04769
:1038A000FFF728BF121A2244F2E712EB0909294652
:1038B000384638BF4A46FFF7EBFEB5E7D8F8103078
:1038C000B34208D01444C8F81C00211AA960BDE80E
:1038D000F047FFF7F3BEBDE8F08700BF20250020CA
:1038E0001025002038B501F0F5FD054AD2E908455C
:1038F000031B181945F10001C2E9080138BD00BFDA
:103900001025002000207047FEE7000070470000EF
:103910004FF0FF307047000002290CD0032904D07B
:103920000129074818BF00207047032A05D8054819
:1039300000EBC2007047044870470020704700BF8A
:10394000B46300083C2200206863000870B59AB098
:1039500005460846144601A900F0C2F801A8FDF783
:1039600045FC431C0022C6B25B001046C5E900348A
:1039700023700323023404F8013C01ABD1B20234BA
:103980008E4201D81AB070BD13F8011B013204F841
:10399000010C04F8021CF1E708B5302383F3118809
:1039A0000348FFF733F9002383F3118808BD00BFF4
:1039B0008027002090F8803003F01F02012A07D1F1
:1039C00090F881200B2A03D10023C0E91D3315E0B4
:1039D00003F06003202B08D1B0F884302BB990F8A5
:1039E0008120212A03D81F2A04D8FFF7F1B8222A00
:1039F000EBD0FAE7034A426707228267C3670120D8
:103A0000704700BF3322002007B5052917D8DFE82B
:103A100001F0191603191920302383F31188104A75
:103A200001210190FFF79AF9019802210D4AFFF751
:103A300095F90D48FFF7B6F8002383F3118803B01A
:103A40005DF804FB302383F311880748FFF780F803
:103A5000F2E7302383F311880348FFF797F8EBE789
:103A6000086300082C6300088027002038B50C4D3F
:103A70000C4C2A460C4904F10800FFF767FF05F1DA
:103A8000CA0204F110000949FFF760FF05F5CA7288
:103A900004F118000649BDE83840FFF757BF00BFE2
:103AA000584000203C220020E8620008F262000832
:103AB000FD62000870B5044608460D46FDF796FB0A
:103AC000C6B22046013403780BB9184670BD3246A1
:103AD0002946FDF76BFB0028F3D10120F6E7000033
:103AE0002DE9F84F05460C46FDF780FB2D49C6B27F
:103AF0002846FFF7DFFF08B10436F6B22A49284608
:103B0000FFF7D8FF08B11036F6B2632E0DD8DFF8F4
:103B10009490DFF894A0DFF89C80DFF89CB0234FEE
:103B20002E7846B92670BDE8F88F29462046BDE8B4
:103B3000F84F02F0D9B9252E30D107224946284640
:103B4000FDF734FB70B93B6807350B3444F80B3C88
:103B50007B6844F8073C3B8924F8033CBB7A04F8B3
:103B6000013CDDE7082251462846FDF71FFBA8B9B6
:103B7000A21C0F4B19780232090911F8081002F83B
:103B8000041C13F8011B01F00F015B4511F808102C
:103B900002F8031CEED118340835C1E7013504F8EA
:103BA000016BBDE7D4630008FD620008DC63000818
:103BB00000E8F11FE86300080CE8F11FBFF34F8F26
:103BC000044B1A695107FCD1D3F810215207F8D1E0
:103BD000704700BF0020005208B50D4B1B78ABB9F1
:103BE000FFF7ECFF0B4BDA68D10704D50A4A5A609D
:103BF00002F188325A60D3F80C21D20706D5064A62
:103C0000C3F8042102F18832C3F8042108BD00BFC3
:103C1000B6420020002000522301674508B5114B31
:103C20001B78F3B9104B1A69510703D5DA6842F0D3
:103C30004002DA60D3F81021520705D5D3F80C21E1
:103C400042F04002C3F80C21FFF7B8FF064BDA68D8
:103C500042F00102DA60D3F80C2142F00102C3F80D
:103C60000C2108BDB6420020002000520F289ABF48
:103C700000F5806040040020704700004FF40030E1
:103C800070470000102070470F2808B50BD8FFF7C9
:103C9000EDFF00F500330268013204D104308342A5
:103CA000F9D1012008BD0020FCE700000F2838B53D
:103CB00005463FD8FFF782FF1F4CFFF78DFF4FF0FF
:103CC000FF3307286361C4F814311DD82361FFF75F
:103CD00075FF030243F02403E360E36843F08003CD
:103CE000E36023695A07FCD42846FFF767FFFFF714
:103CF000BDFF4FF4003100F031FA2846FFF78EFF88
:103D0000BDE83840FFF7C0BFC4F81031FFF756FFD9
:103D1000A0F108031B0243F02403C4F80C31D4F8CB
:103D20000C3143F08003C4F80C31D4F810315B0738
:103D3000FBD4D9E7002038BD002000522DE9F84F10
:103D400005460C46104645EA0203DE0602D0002076
:103D5000BDE8F88F20F01F00DFF8BCB0DFF8BCA092
:103D6000FFF73AFF04EB0008444503D10120FFF7B9
:103D700055FFEDE720222946204602F0A5F810B9AC
:103D800020352034F0E72B4605F120021F68791C0E
:103D9000DDD104339A42F9D105F178431B481C4E1A
:103DA000B3F5801F1B4B38BF184603F1F80332BF31
:103DB000D946D1461E46FFF701FF0760A5EB040C6C
:103DC000336804F11C0143F002033360231FD9F868
:103DD000007017F00507FAD153F8042F8B424CF806
:103DE0000320F4D1BFF34F8FFFF7E8FE4FF0FF330E
:103DF0002022214603602846336823F00203336003
:103E000002F062F80028BBD03846B0E71421005217
:103E10000C20005214200052102000521021005299
:103E200010B5084C237828B11BB9FFF7D5FE012344
:103E3000237010BD002BFCD02070BDE81040FFF7B0
:103E4000EDBE00BFB64200202DE9F04F0D4685B013
:103E5000814658B111F00D0614BF2022082211F03E
:103E60000803019304D0431E03426AD0002435E0C6
:103E7000002E37D009F11F0121F01F094FF0010872
:103E8000324F05F00403DFF8D0A005EA080BBBF1C0
:103E9000000F32D07869C0072FD408F101080C3721
:103EA000B8F1060FF3D19EB9294D4946A8190192E0
:103EB00001F076FB044600283AD11836019A782E94
:103EC000F3D1494601F06CFB0446002830D1019A39
:103ED0004946204801F064FB044668BB204605B013
:103EE000BDE8F08F0029C9D101462846029201F0B1
:103EF00057FB0446E0B9029AC0E713B1786941075D
:103F0000CBD5AC0702D578698007C6D5019911B128
:103F100078690107C1D51820494600FB08A0CDE902
:103F2000022301F03DFB0446DDE902230028B4D062
:103F30004A460021204601E04A460021FDF75EF98D
:103F4000CCE70246002E95D198E700BFFC6300083D
:103F5000E8420020B8420020D04200200021FFF7B4
:103F600073BF00000121FFF76FBF0000F8B5144DCB
:103F700001241827134E40F2FF3200210120FDF7E3
:103F80003DF907FB046001342A6955F80C1F01F064
:103F9000F3FA062CF5D137254FF4C0542046FFF72D
:103FA000E1FF014628B122460748BDE8F84001F08C
:103FB000E3BAC4EBC404013D4FEAD404EED1F8BD2A
:103FC000FC630008D0420020B84200200421FFF723
:103FD0003BBF00004843FFF7C1BF000008B101F03C
:103FE00051BB704738B5054D00240334696855F856
:103FF0000C0B00F0C5F8122CF7D138BDFC6300089B
:1040000070B5AAB140EA010313F01F030FD1094CA8
:104010000144A5686D0706D52568A84203D36668E4
:104020003544A94204D903330C34122BF1D10022B8
:10403000104670BDFC63000838B5EFF311859DB9DB
:10404000EFF30584C4F30804302334B183F31188FB
:10405000FFF748FC85F3118838BD83F31188FFF71B
:1040600041FC84F3118838BDBDE83840FFF73ABC05
:1040700010B5FFF7E1FF104CC008104A002340EADA
:104080004170C908A0FB04ECA0FB020E1CEB000071
:10409000A1FB044CA1FB02125B41001943EB0C0095
:1040A00011EB0E0142F10002411842F10000090932
:1040B00041EA007010BD00BFCFF753E3A59BC420B9
:1040C0000244074BD2B210B5904200D110BD441C3F
:1040D00000B253F8200041F8040BE0B2F4E700BF4F
:1040E000504000580E4B30B51C6F240405D41C6F93
:1040F0001C671C6F44F400441C670A4C024423688C
:10410000D2B243F480732360074B904200D130BD9C
:10411000441C51F8045B00B243F82050E0B2F4E7CD
:1041200000440258004802585040005807B5012288
:1041300001A90020FFF7C4FF019803B05DF804FB5C
:1041400013B50446FFF7F2FFA04205D0012201A9F2
:1041500000200194FFF7C6FF02B010BD0144BFF379
:104160004F8F064B884204D3BFF34F8FBFF36F8F3F
:104170007047C3F85C022030F4E700BF00ED00E0B8
:104180000144BFF34F8F064B884204D3BFF34F8FD8
:10419000BFF36F8F7047C3F870022030F4E700BFA1
:1041A00000ED00E07047000070B5054616460C466D
:1041B00001201021FFF70EFF286046733CB1204616
:1041C00036B1FFF703FF2B68186000B19C6070BD2B
:1041D000FFF7C8FEF7E70000F8B50F46154604469E
:1041E00048B905F11F010126386821F01F01FFF7CA
:1041F000B5FF3046F8BD427B29463868FFF700FF1F
:1042000006460028EDD13B686360A368AB4210D23C
:1042100013B12068FFF7E2FE637B28462BB1FFF75E
:10422000D5FE206020B9A060E3E7FFF79BFEF8E72A
:10423000A560206805F11F01012621F01F013860EB
:10424000FFF78CFF2673D4E710B5044640B1006831
:10425000884205D1606808B1FCF79EFF00232373F4
:1042600010BD0000F8B50F461446054648B904F1E4
:104270001F010126386821F01F01FFF781FF30463A
:10428000F8BD427B21463868FFF7BAFE0646002893
:10429000EDD1AB68A34210D213B12868FFF79EFEA0
:1042A0006B7B20462BB1FFF791FE286020B9A860F8
:1042B000E5E7FFF757FEF8E7AC60396819B1224629
:1042C0002868FCF769FF286804F11F01012621F026
:1042D0001F013860FFF754FF2E73D0E720B1036849
:1042E0008B4204BF002303737047000008B1002312
:1042F00003737047034B1A681AB9034AD2F8D024E3
:104300001A607047604300200040025808B5FFF76C
:10431000F1FF024B1868C0F3806008BD60430020C5
:10432000EFF30983054968334A6B22F001024A63BF
:1043300083F30988002383F31188704700EF00E0BE
:10434000302080F3118862B60D4B0E4AD96821F4F3
:10435000E0610904090C0A430B49DA60D3F8FC2038
:1043600042F08072C3F8FC20084AC2F8B01F1168FE
:1043700041F0010111602022DA7783F822007047B2
:1043800000ED00E00003FA0555CEACC5001000E0DA
:10439000302310B583F311880E4B5B6813F4006370
:1043A00014D0F1EE103AEFF309844FF08073683CBB
:1043B000E361094BDB6B236684F30988FFF74AF856
:1043C00010B1064BA36110BD054BFBE783F31188C9
:1043D000F9E700BF00ED00E000EF00E03F04000857
:1043E0004204000870B5BFF34F8FBFF36F8F1A4AB6
:1043F0000021C2F85012BFF34F8FBFF36F8F536984
:1044000043F400335361BFF34F8FBFF36F8FC2F894
:104410008410BFF34F8FD2F8803043F6E074C3F3BB
:10442000C900C3F34E335B0103EA0406014646EAC2
:1044300081750139C2F86052F9D2203B13F1200F87
:10444000F2D1BFF34F8F536943F480335361BFF30D
:104450004F8FBFF36F8F70BD00ED00E0FEE70000EF
:10446000214B2248224A70B5904237D3214BC11EBE
:10447000DA1C121A22F003028B4238BF00220021FC
:10448000FCF7BCFE1C4A0023C2F88430BFF34F8FF8
:10449000D2F8803043F6E074C3F3C900C3F34E335F
:1044A0005B0103EA0406014646EA81750139C2F858
:1044B0006C52F9D2203B13F1200FF2D1BFF34F8F92
:1044C000BFF36F8FBFF34F8FBFF36F8F0023C2F81F
:1044D0005032BFF34F8FBFF36F8F70BD53F8041B83
:1044E00040F8041BC0E700BF5C66000818460020C7
:1044F000184600201846002000ED00E003681A6806
:1045000099685A6043681BB142EA014180681847C4
:10451000704700004FF0A44310B51C68E00702D5B7
:104520002848FFF7EBFFA10702D52748FFF7E6FF72
:10453000620702D52548FFF7E1FF230702D524488B
:10454000FFF7DCFFE00602D52248FFF7D7FFA10600
:1045500002D52148FFF7D2FF620602D51F48FFF7B8
:10456000CDFF230602D51E48FFF7C8FFE00502D5A0
:104570001C48FFF7C3FFA10502D51B48FFF7BEFF8C
:10458000620502D51948FFF7B9FF230502D518487F
:10459000FFF7B4FFE00402D51648FFF7AFFFA10410
:1045A00002D51548FFF7AAFF620402D51348FFF7AA
:1045B000A5FF230402D51248FFF7A0FFBDE8104075
:1045C000FFF7E6BE684300207443002080430020CC
:1045D0008C43002098430020A4430020B0430020D7
:1045E000BC430020C8430020D4430020E043002007
:1045F000EC430020F8430020044400201044002035
:104600001C44002030B5094B0021094C102007251F
:10461000196054F8042B0138C3E90121D16003F17A
:104620000C0311615560F4D130BD00BF644300201C
:10463000446400080F28F0B50AD9102806D10F23CA
:104640000020144C01272568984203D900201DE062
:104650000346F6E707FA00F6354218D10C23354336
:1046600043432560181D2344C3E902120A4B20442A
:10467000D3F8D42042F00102C3F8D420D3F8FC20B0
:1046800042F00102C3F8FC20D3F8FC30F0BD013049
:10469000DAE700BF64430020004402580368D96889
:1046A000DA68C90722F03F02DA6002D51A68920779
:1046B000FCD507225A607047074BD3F8D81021EA7F
:1046C0000001C3F8D810D3F8002122EA0002C3F891
:1046D0000021D3F8003170470044025870B5D0E98A
:1046E000244300224FF0FF359E6804EB4213510132
:1046F000D3F80009002805DAD3F8000940F080401B
:10470000C3F80009D3F8000B002805DAD3F8000B32
:1047100040F08040C3F8000B013263189642C3F8A2
:104720000859C3F8085BE0D24FF00113C4F81C38F5
:1047300070BD0000890141F02001016103699B0601
:10474000FCD41220FEF70EBF10B50A4C2046FEF72F
:10475000E3FA094BC4F89030084BC4F89430084C85
:104760002046FEF7D9FA074BC4F89030064BC4F840
:10477000943010BD2844002000000840A8640008C0
:10478000C444002000000440B464000870B50378FD
:104790000546012B5CD1434BD0F89040984258D14C
:1047A000414B0E216520D3F8D82042F00062C3F8B7
:1047B000D820D3F8002142F00062C3F80021D3F8DA
:1047C0000021D3F8802042F00062C3F88020D3F8A3
:1047D000802022F00062C3F88020D3F88030FEF7FA
:1047E000C7F8324BE360324BC4F800380023D5F8E9
:1047F0009060C4F8003EC02323604FF40413A36309
:104800003369002BFCDA01230C203361FEF7AAFE8A
:104810003369DB07FCD41220FEF7A4FE3369002BBA
:10482000FCDA00262846A660FFF758FF6B68C4F83C
:104830001068DB68C4F81468C4F81C6883BB1D4B9F
:10484000A3614FF0FF336361A36843F00103A360EA
:1048500070BD194B9842C9D1134B4FF08060D3F80B
:10486000D82042F00072C3F8D820D3F8002142F0DB
:104870000072C3F80021D3F80021D3F8802042F061
:104880000072C3F88020D3F8802022F00072C3F8B1
:104890008020D3F88030FFF70FFF0E214D209EE7D8
:1048A000064BCDE728440020004402584014004045
:1048B00003002002003C30C0C4440020083C30C04B
:1048C000F8B5D0F89040054600214FF0006620462C
:1048D000FFF730FFD5F8941000234FF001128F68D6
:1048E0004FF0FF30C4F83438C4F81C2804EB4312EE
:1048F00001339F42C2F80069C2F8006BC2F8080990
:10490000C2F8080BF2D20B68D5F89020C5F89830A1
:10491000636210231361166916F01006FBD1122092
:10492000FEF720FED4F8003823F4FE63C4F8003804
:10493000A36943F4402343F01003A3610923C4F89F
:104940001038C4F814380B4BEB604FF0C043C4F878
:10495000103B094BC4F8003BC4F81069C4F8003997
:10496000D5F8983003F1100243F48013C5F898206D
:10497000A362F8BD8464000840800010D0F8902045
:1049800090F88A10D2F8003823F4FE6343EA01134A
:10499000C2F80038704700002DE9F84300EB8103AE
:1049A000D0F890500C468046DA680FFA81F9480139
:1049B000166806F00306731E022B05EB41134FF039
:1049C000000194BFB604384EC3F8101B4FF001012C
:1049D00004F1100398BF06F1805601FA03F39169C0
:1049E00098BF06F5004600293AD0578A04F15801CD
:1049F000374349016F50D5F81C180B430021C5F807
:104A00001C382B180127C3F81019A7405369611EE1
:104A10009BB3138A928B9B08012A88BF5343D8F813
:104A20009820981842EA034301F140022146C8F851
:104A30009800284605EB82025360FFF77BFE08EBE7
:104A40008900C3681B8A43EA845348341E436401C7
:104A50002E51D5F81C381F43C5F81C78BDE8F883E3
:104A600005EB4917D7F8001B21F40041C7F8001BDC
:104A7000D5F81C1821EA0303C0E704F13F030B4AF1
:104A80002846214605EB83035A60FFF753FE05EBEA
:104A90004910D0F8003923F40043C0F80039D5F8A4
:104AA0001C3823EA0707D7E7008000100004000243
:104AB000D0F894201268C0F89820FFF70FBE0000CD
:104AC0005831D0F8903049015B5813F4004004D0BD
:104AD00013F4001F0CBF0220012070474831D0F8AA
:104AE000903049015B5813F4004004D013F4001FC8
:104AF0000CBF02200120704700EB8101CB68196ACE
:104B00000B6813604B6853607047000000EB810333
:104B100030B5DD68AA691368D36019B9402B84BF2A
:104B2000402313606B8A1468D0F890201C4402EB79
:104B30004110013C09B2B4FBF3F46343033323F0A7
:104B4000030343EAC44343F0C043C0F8103B2B685F
:104B500003F00303012B0ED1D2F8083802EB411009
:104B600013F4807FD0F8003B14BF43F0805343F030
:104B70000053C0F8003B02EB4112D2F8003B43F077
:104B80000443C2F8003B30BD2DE9F041D0F89060FD
:104B900005460C4606EB4113D3F8087B3A07C3F8E9
:104BA000087B08D5D6F814381B0704D500EB810321
:104BB000DB685B689847FA071FD5D6F81438DB071F
:104BC0001BD505EB8403D968CCB98B69488A5A6830
:104BD000B2FBF0F600FB16228AB91868DA68904238
:104BE0000DD2121AC3E90024302383F31188214621
:104BF0002846FFF78BFF84F31188BDE8F08101237D
:104C000003FA04F26B8923EA02036B81CB68002B61
:104C1000F3D021462846BDE8F041184700EB810358
:104C20004A0170B5DD68D0F890306C692668E6609E
:104C300056BB1A444FF40020C2F810092A6802F04B
:104C40000302012A0AB20ED1D3F8080803EB42147A
:104C500010F4807FD4F8000914BF40F0805040F079
:104C60000050C4F8000903EB4212D2F8000940F0EA
:104C70000440C2F800090122D3F8340802FA01F115
:104C80000143C3F8341870BD19B9402E84BF4020C9
:104C9000206020681A442E8A8419013CB4FBF6F483
:104CA00040EAC44040F00050C6E700002DE9F84358
:104CB000D0F8906005460C464F0106EB4113D3F83F
:104CC000088918F0010FC3F808891CD0D6F81038ED
:104CD000DB0718D500EB8103D3F80CC0DCF81430E7
:104CE000D3F800E0DA68964530D2A2EB0E024FF01E
:104CF00000091A60C3F80490302383F31188FFF78A
:104D00008DFF89F3118818F0800F1DD0D6F8343844
:104D10000126A640334217D005EB84030134D5F8B1
:104D20009050D3F80CC0E4B22F44DCF8142005EB0B
:104D30000434D2F800E05168714514D3D5F8343802
:104D400023EA0606C5F83468BDE8F883012303FAB0
:104D500001F2038923EA02030381DCF80830002B07
:104D6000D1D09847CFE7AEEB0103BCF810008342E7
:104D700028BF0346D7F8180980B2B3EB800FE3D8F9
:104D80009068A0F1040959F8048FC4F80080A0EBE2
:104D900009089844B8F1040FF5D818440B44906002
:104DA0005360C8E72DE9F84FD0F8905004466E697B
:104DB000AB691E4016F480586E6103D0BDE8F84F11
:104DC000FEF71AB8002E12DAD5F8003E9B0705D080
:104DD000D5F8003E23F00303C5F8003ED5F80438AB
:104DE000204623F00103C5F80438FEF733F83705F1
:104DF00005D52046FFF772FC2046FEF719F8B004EF
:104E00000CD5D5F8083813F0060FEB6823F470536F
:104E10000CBF43F4105343F4A053EB6031071BD590
:104E20006368DB681BB9AB6923F00803AB612378C7
:104E3000052B0CD1D5F8003E9A0705D0D5F8003ED9
:104E400023F00303C5F8003E2046FEF703F863682D
:104E5000DB680BB120469847F30200F1BA80B70235
:104E600026D5D4F8909000274FF0010A09EB47129D
:104E7000D2F8003B03F44023B3F5802F11D1D2F8D0
:104E8000003B002B0DDA62890AFA07F322EA0303DA
:104E9000638104EB8703DB68DB6813B13946204686
:104EA00098470137D4F89430FFB29B689F42DDD910
:104EB000F00619D5D4F89000026AC2F30A1702F07E
:104EC0000F0302F4F012B2F5802F00F0CA80B2F5A1
:104ED000402F09D104EB8303002200F58050DB68EA
:104EE0001B6A974240F0B0803003D5F8185835D58A
:104EF000E90303D500212046FFF746FEAA0303D5A8
:104F000001212046FFF740FE6B0303D50221204616
:104F1000FFF73AFE2F0303D503212046FFF734FEA7
:104F2000E80203D504212046FFF72EFEA90203D58F
:104F300005212046FFF728FE6A0203D506212046F8
:104F4000FFF722FE2B0203D507212046FFF71CFEA8
:104F5000EF0103D508212046FFF716FE700340F14C
:104F6000A780E90703D500212046FFF79FFEAA0787
:104F700003D501212046FFF799FE6B0703D50221D7
:104F80002046FFF793FE2F0703D503212046FFF7A6
:104F90008DFEEE0603D504212046FFF787FEA80606
:104FA00003D505212046FFF781FE690603D50621BA
:104FB0002046FFF77BFE2A0603D507212046FFF790
:104FC00075FEEB0574D520460821BDE8F84FFFF7C4
:104FD0006DBED4F890904FF0000B4FF0010AD4F85A
:104FE00094305FFA8BF79B689F423FF638AF09EB2E
:104FF0004713D3F8002902F44022B2F5802F20D1C4
:10500000D3F80029002A1CDAD3F8002942F0904294
:10501000C3F80029D3F80029002AFBDB3946D4F86D
:105020009000FFF787FB22890AFA07F322EA0303BD
:10503000238104EB8703DB689B6813B13946204664
:1050400098470BF1010BCAE7910701D1D0F8008016
:10505000072A02F101029CBF03F8018B4FEA1828CE
:105060003FE704EB830300F58050DA68D2F818C0FC
:10507000DCF80820DCE9001CA1EB0C0C00218F42BD
:1050800008D1DB689B699A683A449A605A683A4446
:105090005A6029E711F0030F01D1D0F800808C4548
:1050A00001F1010184BF02F8018B4FEA1828E6E7FD
:1050B000BDE8F88F08B50348FFF774FEBDE8084067
:1050C000FFF766B92844002008B50348FFF76AFED9
:1050D000BDE80840FFF75CB9C4440020D0F8903028
:1050E00003EB4111D1F8003B43F40013C1F8003B3E
:1050F00070470000D0F8903003EB4111D1F800392F
:1051000043F40013C1F8003970470000D0F8903024
:1051100003EB4111D1F8003B23F40013C1F8003B2D
:1051200070470000D0F8903003EB4111D1F80039FE
:1051300023F40013C1F800397047000030B5043380
:10514000039C0172002104FB0325C160C0E90653E2
:10515000049B0363059BC0E90000C0E90422C0E989
:105160000842C0E90A11436330BD00000022416AD1
:10517000C260C0E90411C0E90A226FF00101FEF724
:1051800079BA0000D0E90432934201D1C2680AB969
:10519000181D704700207047036919600021C2681C
:1051A0000132C260C269134482699342036124BF21
:1051B000436A0361FEF752BA38B504460D46E36808
:1051C0003BB162690020131D1268A3621344E362BD
:1051D00007E0237A33B929462046FEF72FFA002844
:1051E000EDDA38BD6FF00100FBE70000C368C2696B
:1051F000013BC3604369134482699342436124BF06
:10520000436A436100238362036B03B1184770470D
:1052100070B53023044683F31188866A3EB9FFF7E0
:10522000CBFF054618B186F31188284670BDA36AE6
:10523000E26A13F8015B9342A36202D32046FFF7B0
:10524000D5FF002383F31188EFE700002DE9F84F25
:1052500004460E46174698464FF0300989F31188E8
:105260000025AA46D4F828B0BBF1000F09D1414669
:105270002046FFF7A1FF20B18BF311882846BDE837
:10528000F88FD4E90A12A7EB050B521A934528BFF1
:105290009346BBF1400F1BD9334601F1400251F850
:1052A000040B914243F8040BF9D1A36A4036403510
:1052B0004033A362D4E90A239A4202D32046FFF77F
:1052C00095FF8AF31188BD42D8D289F31188C9E7C6
:1052D00030465A46FBF760FFA36A5E445D445B4478
:1052E000A362E7E710B5029C0433017203FB0421BB
:1052F000C460C0E906130023C0E90A33039B0363BB
:10530000049BC0E90000C0E90422C0E908424363ED
:1053100010BD0000026A6FF00101C260426AC0E97C
:1053200004220022C0E90A22FEF7A4B9D0E904232E
:105330009A4201D1C26822B9184650F8043B0B606A
:10534000704700231846FAE7C3680021C269013399
:10535000C3604369134482699342436124BF436A33
:105360004361FEF77BB9000038B504460D46E3689B
:105370003BB1236900201A1DA262E2691344E36273
:1053800007E0237A33B929462046FEF757F900286B
:10539000EDDA38BD6FF00100FBE70000036919602A
:1053A000C268013AC260C2691344826993420361D0
:1053B00024BF436A036100238362036B03B1184770
:1053C0007047000070B530230D460446114683F344
:1053D0001188866A2EB9FFF7C7FF10B186F31188CE
:1053E00070BDA36A1D70A36AE26A01339342A3628F
:1053F00004D3E16920460439FFF7D0FF002080F391
:105400001188EDE72DE9F84F04460D469046994680
:105410004FF0300A8AF311880026B346A76A4FB9C5
:1054200049462046FFF7A0FF20B187F31188304698
:10543000BDE8F88FD4E90A073A1AA8EB06079742A5
:1054400028BF1746402F1BD905F1400355F8042B00
:105450009D4240F8042BF9D1A36A40364033A36241
:10546000D4E90A239A4204D3E16920460439FFF7BC
:1054700095FF8BF311884645D9D28AF31188CDE781
:1054800029463A46FBF788FEA36A3D443E443B4426
:10549000A362E5E7D0E904239A4217D1C3689BB120
:1054A000836A8BB1043B9B1A0ED01360C368013B27
:1054B000C360C3691A4483699A42026124BF436A84
:1054C0000361002383620123184670470023FBE732
:1054D00000F016BA014B586A704700BF000C00403C
:1054E000034B002258631A610222DA60704700BF42
:1054F000000C0040014B0022DA607047000C0040B5
:10550000014B5863704700BF000C0040024B034A38
:105510001A60034A5A6070477845002018460020F8
:1055200000000220074B494210B55C68201A084071
:105530001968821A8A4203D3A24201D85A6010BD68
:105540000020FCE77845002008B5302383F311885C
:10555000FFF7E8FF002383F3118808BD0448012109
:10556000044B03600023C0E901330C30FDF792BF08
:105570008045002049550008CB1D083A23F0070359
:10558000591A521A012110B4D2080024C0E900436C
:1055900084600C301C605A605DF8044BFDF77ABFE4
:1055A0002DE9F84F364ECD1D0F46002818BF064690
:1055B000082A4FEAD50538BF082206F10C08341D29
:1055C00091464046FDF782FF09F10701C9F1000E3F
:1055D000224624686CB94046FDF782FF3368CBB39E
:1055E00008224946E8009847044698B340E9026714
:1055F00030E004EB010CD4F804A00CEA0E0C0AF124
:105600000100ACF1080304EBC0009842E0D9A0EB24
:105610000C0CB5EBEC0F4FEAEC0BD9D89C421CD22A
:1056200004F10802AB45A3EB02024FEAE20262601A
:1056300009D9691CED43206803EBC1025D44556044
:1056400043F8310022601C465F60404644F8086B16
:10565000FDF746FF2046BDE8F88FAA45216802D134
:1056600011602346EFE7013504EBC50344F835101C
:1056700003F10801401AC01058601360F1E700BF41
:1056800080450020F8B550F8043C044650F8085C0A
:10569000A0F1080607332F1D0C35DB0840F8043C49
:1056A0002846FDF713FF3B469F421A6801D0B342DC
:1056B00028D20AB1964225D244F8082C54F8042C7A
:1056C0001E60013254F8081C06EBC200814206D16C
:1056D0004868024444F8042C0A6844F8082C5868C6
:1056E000411C03EBC1018E4207D154F8042C013256
:1056F00002445A6054F8082C1A602846BDE8F84065
:10570000FDF7EEBE1346CFE7FEE7000070B51B4B7A
:105710000025044686B058600E4685620163FEF798
:105720000FFE04F11003A560E562C4E904334FF0F5
:10573000FF33C4E90044C4E90635FFF7CBFE2B462E
:10574000024604F134012046C4E9082380230C4AB0
:105750002565FDF711FF01230A4AE06000920375F9
:10576000684672680192B268CDE90223064BCDE922
:105770000435FDF729FF06B070BD00BF7827002073
:10578000C0640008C564000809570008024AD36ACB
:105790001843D062704700BF102500204B6843605B
:1057A0008B688360CB68C3600B6943614B6903629C
:1057B0008B6943620B6803607047000008B5354B86
:1057C00040F2FF70D3F8E0100143C3F8E010D3F8C3
:1057D000082102433048C3F80821304AD3F8083181
:1057E0001146FFF7DBFF00F5806002F11C01FFF7B7
:1057F000D5FF00F5806002F13801FFF7CFFF00F51B
:10580000806002F15401FFF7C9FF00F5806002F1EA
:105810007001FFF7C3FF00F5806002F18C01FFF714
:10582000BDFF00F5806002F1A801FFF7B7FF00F5AA
:10583000806002F1C401FFF7B1FF00F5806002F162
:10584000E001FFF7ABFF00F5806002F1FC01FFF71C
:10585000A5FF02F58C7100F58060FFF79FFF00F057
:105860001DF90F4BD3F8902242F00102C3F89022A9
:10587000D3F8942242F00102C3F894220522C3F81F
:1058800098204FF06052C3F89C20064AC3F8A0202D
:1058900008BD00BF0044025800000258CC64000854
:1058A00000ED00E01F00080308B500F0D9FAFDF78D
:1058B0002DFE104BD3F8DC2042F04002C3F8DC2070
:1058C000D3F8042122F04002C3F80421D3F80431B4
:1058D000094B1A6842F008021A601A6842F0040282
:1058E0001A60FEF707FDFEF741FBBDE80840FEF732
:1058F000BDB800BF004402580018024870470000BD
:10590000114BD3F8E82042F00802C3F8E820D3F89E
:10591000102142F00802C3F810210C4AD3F81031CC
:10592000D36B43F00803D363C722094B9A624FF04D
:10593000FF32DA6200229A615A63DA605A60012209
:105940005A611A60704700BF004402580010005CA2
:10595000000C0040094A08B51169D3680B40D9B260
:105960009B076FEA0101116107D5302383F311888A
:10597000FDF7F6FD002383F3118808BD000C0040FD
:10598000064BD3F8DC200243C3F8DC20D3F8042113
:105990001043C3F80401D3F804317047004402589F
:1059A00008B53D4B4FF0FF31D3F8802062F0004244
:1059B000C3F88020D3F8802002F00042C3F8802092
:1059C000D3F88020D3F88420C3F88410D3F884203F
:1059D0000022C3F88420D3F88400D86F40F0FF4041
:1059E00040F4FF0040F4DF4040F07F00D867D86FFC
:1059F00020F0FF4020F4FF0020F4DF4020F07F0083
:105A0000D867D86FD3F888006FEA40506FEA5050DB
:105A1000C3F88800D3F88800C0F30A00C3F88800F0
:105A2000D3F88800D3F89000C3F89010D3F8900012
:105A3000C3F89020D3F89000D3F89400C3F89410E2
:105A4000D3F89400C3F89420D3F89400D3F89800C6
:105A5000C3F89810D3F89800C3F89820D3F89800AA
:105A6000D3F88C00C3F88C10D3F88C00C3F88C20CA
:105A7000D3F88C00D3F89C00C3F89C10D3F89C108A
:105A8000C3F89C20D3F89C30FCF77AFDFEF7BAFDF2
:105A9000BDE8084000F0B8B90044025808B501223A
:105AA000534BC3F80821534BD3F8F42042F00202C1
:105AB000C3F8F420D3F81C2142F00202C3F81C21E1
:105AC0000222D3F81C314C4BDA605A689104FCD5A1
:105AD0004A4A1A6001229A60494ADA6000221A6131
