:020000040800F2
:1000000000070020F1020008E1CC000899CC0008AC
:10001000C1CC000899CC0008B9CC0008F302000854
:10002000F3020008F3020008F30200082DF90008AB
:10003000F3020008F3020008F3020008F3020008CC
:10004000F3020008F3020008F3020008F3020008BC
:10005000F3020008F3020008F3020008F3020008AC
:10006000F3020008F3020008F3020008A5FE0008EE
:10007000CDFE0008F9FE000825FF000851FF00082A
:1000800079FF0008A5FF0008F30200084DCB000827
:1000900075CB000861CB000889CB0008F30200088B
:1000A000F3020008F3020008F3020008F30200085C
:1000B000F3020008F3020008F3020008F30200084C
:1000C000F3020008F3020008F3020008F30200083C
:1000D000F30200084D280108F30200086128010816
:1000E000F3020008F3020008F3020008F30200081C
:1000F000F3020008F3020008F3020008D1FF000831
:10010000F3020008F302000875280108F302000852
:10011000F3020008F3020008F3020008F3020008EB
:10012000FDFF000825000108510001087D000108BD
:10013000A9000108B5030108F3020008F302000852
:10014000F3020008F3020008F3020008F3020008BB
:10015000D1000108FD00010829010108F30200088F
:10016000F3020008F3020008F3020008F30200089B
:10017000F3020008F3020008F3020008F30200088B
:10018000F3020008F3020008F3020008F30200087B
:10019000F3020008F3020008F3020008F30200086B
:1001A000F3020008F3020008F3020008F30200085B
:1001B000F3020008F3020008F3020008F30200084B
:1001C000F3020008F3020008F3020008F30200083B
:1001D000F3020008F3020008F3020008F30200082B
:1001E000F3020008F3020008F3020008F30200081B
:1001F000F3020008F3020008F3020008F30200080B
:10020000F3020008F3020008F3020008F3020008FA
:10021000F3020008F3020008F3020008F3020008EA
:10022000F3020008F3020008F3020008F3020008DA
:10023000F3020008F3020008F3020008F3020008CA
:10024000F3020008F3020008F3020008F3020008BA
:10025000F3020008F3020008F3020008F3020008AA
:10026000F3020008F3020008F3020008F30200089A
:10027000F3020008F3020008F3020008F30200088A
:10028000F3020008F3020008F3020008F30200087A
:10029000F3020008F3020008F3020008F30200086A
:1002A000F3020008F3020008F3020008F30200085A
:1002B000F3020008F3020008F3020008F30200084A
:1002C000F3020008F3020008F3020008F30200083A
:1002D000F3020008F3020008F3020008F30200082A
:1002E000D50500080519000871BA000800000000D3
:1002F00002E000F000F8FEE772B6374880F30888A5
:10030000364880F3098836483649086040F20000D4
:10031000CCF200004EF63471CEF200010860BFF35B
:100320004F8FBFF36F8F40F20000C0F2F0004EF627
:100330008851CEF200010860BFF34F8FBFF36F8F7B
:100340004FF00000E1EE100A4EF63C71CEF20001D3
:100350000860062080F31488BFF36F8F11F002FE4F
:1003600012F030F84FF055301F491B4A91423CBF04
:1003700041F8040BFAE71D49184A91423CBF41F885
:10038000040BFAE71A491B4A1B4B9A423EBF51F82D
:10039000040B42F8040BF8E700201849184A914270
:1003A0003CBF41F8040BFAE711F01AFE12F08EF888
:1003B000144C154DAC4203DA54F8041B8847F9E796
:1003C00000F094F8114C124DAC4203DA54F8041BBF
:1003D0008847F9E711F002BE000700200023002043
:1003E0000000000808ED00E00001002000070020E8
:1003F000B870010800230020C0230020C023002083
:10040000347C0020E0020008EC020008EC02000846
:10041000EC0200082DE9F04F2DED108AC1F80CD048
:10042000D0F80CD0BDEC108ABDE8F08F002383F328
:1004300011882846A047002011F0B2F8FEE710F01E
:1004400085FF00DFFEE7000001F0FF01102A2BDB33
:1004500010F0070F08D010F8013B013A8B422DD065
:1004600010F0070F42B3F6D1F0B441EA012141EA9E
:10047000014122F007047FF000070023F0E8025654
:10048000083C85EA010586EA010685FA47F5A3FAE4
:1004900087F586FA47F6A5FA87F68EB9EED1F0BC55
:1004A00001F0FF0102F0070232B110F8013B013AFE
:1004B00083EA010313B1F8D1002070470138704777
:1004C000002D06BF35460338073815F0010F07D158
:1004D000013015F4807F02BF013015F4C03F0130B8
:1004E000F0BC0138704700BF704700002DE9F341B0
:1004F00001F026FF02F0C8F8304801F077FC11F057
:10050000B5FC074611F024FD054600283ED12C4BD2
:100510009F423BD001339F423BD027F0FF02294B43
:100520009A4239D12E4642F21074F8B200F0E0FF40
:1005300000F0E4FF08B10024264602F04FFB80469D
:1005400070B30024032000F0ABF8424626461E4953
:100550001A4801F05BFC35B11C4B9F4203D00024CC
:1005600011F0EEFC2646002011F08AFC0EB100F0DE
:10057000ADF802F05BF800F0F5FF104801F010FC58
:10058000204600F045F900F0A1F8F9E72E460024D6
:10059000CEE704460126CBE7064641F28834C7E79A
:1005A00002F09AFB0028D6D04169437E027E00917A
:1005B0000248074901F02AFCCDE700BFC023002014
:1005C000010007B0000008B0C43A0108263A09B09B
:1005D000D83A010810B5084C04F108000CF042FBB1
:1005E00004F134000CF03EFB2046044A0449BDE807
:1005F000104012F06BB900BFC0230020B46E002081
:10060000E904000808B501F067FEA0F12003584294
:10061000584108BD07B5042101900DEB010001F020
:1006200079FE03B05DF804FB38B5302383F31188FD
:10063000174803680BB111F07FF80023154A4FF4F7
:100640007A71134811F06EF8002383F31188124C6D
:10065000236813B12368013B2360636813B16368A7
:10066000013B63600D4D2B7833B963687BB9022081
:1006700001F02AFF322363602B78032B07D16368D4
:100680002BB9022001F020FF4FF47A73636038BD6C
:100690000C250020290600082C26002024250020F7
:1006A000084B187003280CD8DFE800F00805020892
:1006B000022001F0FFBE022001F0F2BE024B002238
:1006C0005A607047242500202C260020F8B502F03F
:1006D00085FA30B1464B03221A700022454B5A600E
:1006E000F8BD454B454A1C4619680131F8D0043322
:1006F0009342F9D16268424B9A42F1D9414B9B68CF
:1007000003F1006303F580239A42E9D211F0ECFB78
:1007100011F0FEFB002001F039FE0220FFF7C0FFC0
:10072000394B0021D3F8E820C3F8E810D3F81021A2
:10073000C3F81011D3F81021D3F8EC20C3F8EC1053
:10074000D3F81421C3F81411D3F81421D3F8F020EE
:10075000C3F8F010D3F81821C3F81811D3F81831E2
:1007600072B64FF0E023C3F8084DD4E90004BFF39C
:100770004F8FBFF36F8F254AC2F88410BFF34F8F9E
:10078000536923F480335361BFF34F8FD2F8803025
:1007900043F6E076C3F3C905C3F34E335B0103EAC6
:1007A000060C29464CEA81770139C2F87472F9D2F5
:1007B000203B13F1200FF2D1BFF34F8FBFF36F8FA8
:1007C000BFF34F8FBFF36F8F536923F4003353612F
:1007D0000023C2F85032BFF34F8FBFF36F8F302327
:1007E00083F31188854680F30888204778E700BFA7
:1007F000242500202C2600200000040820000408E6
:10080000FFFF0308002300200044025800ED00E031
:100810002DE9F04F95B0DFF800932022FF210290E0
:1008200004A8D9F8085001F0ABFEB24A1378A3B976
:100830000121B14811700360302383F311880368EC
:100840000BB110F079FF0023AC4A4FF47A71AA483B
:1008500010F068FF002383F31188029B13B1A84BAB
:10086000029A1A60A74A1378032B03D0002313704F
:10087000A34A53604FF0000B029C5E46DA46CDF867
:1008800004B0012001F016FE24B19D4B1B68002B23
:1008900000F0E281002001F01FFDB0F1000880F2BD
:1008A000118200F0B3FEEFE70220FFF7ABFE002855
:1008B00040F0FF81029B02219348BBF1000F08BF6B
:1008C0001C4640E04FF47A7001F006FD071EF1DB94
:1008D0000220FFF797FE0028ECD0013F052F00F221
:1008E000EA81DFE807F003070A0D10330520FFF760
:1008F00091FE14E0D9F80000F9E7D9F80400F6E712
:10090000D9F80800F3E74FF01C08404608F1040846
:1009100001F03EFDFFF77EFEB8F12C0FF5D101206E
:10092000019B4FF0000A00FA07F71F43FBB2019347
:1009300001F072FE2EB1019B03F00B030B2B08BFDD
:1009400000240221714801F0E5FC9AE7D9F80C0077
:10095000CDE7002EAED0019B03F00B030B2BA9D1EA
:100960000220FFF74FFE07460028A3D001200026F3
:1009700001F00CFD0220FFF793FE1FFA86FB58469C
:1009800001F014FD044688B1A8F140025846013632
:100990005142514101F022FD0028EED1BB460446F0
:1009A00002215B483E4601F0B5FC6AE7254601207E
:1009B000FFF776FED9F80830AB4207D9284601F098
:1009C000E7FC013040F07A810435F3E700254D4B18
:1009D000BB463E461D704A4B5D60A9E7002E3FF4C2
:1009E00069AF019B03F00B030B2B7FF463AF022075
:1009F000FFF756FE322001F06FFCB0F10008FFF661
:100A000059AF18F003077FF455AF08EB0503D9F889
:100A1000082093423FF64EAFB8F5807F3FF74AAFCC
:100A20003C4BB84503930BDD4FF47A7001F054FC56
:100A30000028FFF63FAF039B013703F8010BF0E7F7
:100A4000C820FFF7DFFD074600283FF433AF1F2D16
:100A500011D8C5F1200204AB25F003002D49424511
:100A6000184428BF4246039201F058FD039AFF2123
:100A7000284801F085FD4FEAA803C8F387022549FD
:100A80002846039301F084FD0646002888D0039B86
:100A900005EB83054CE70220FFF7B4FD00283FF487
:100AA00009AF01F0ADFC00283FF404AF0027B846C1
:100AB000D9F80830BB4218D91F2F11D8049B013335
:100AC0000ED027F0030314AA134453F8403C0C93B0
:100AD000404604220CA9043702F056F88046E7E7A6
:100AE000384601F055FC0C90F2E74046FFF792FDC6
:100AF0001EE700BF282600200C250020290600083C
:100B00002C26002024250020103B0108083B01086A
:100B10000C3B01082825002000230020002364212D
:100B20000CA80C9301F0ECFB00287FF4C3AE02206C
:100B3000FFF768FD00283FF4BDAE0C9801F056FCAD
:100B4000D4E7002364210CA80C9301F0D9FB002802
:100B50007FF4B0AE0220FFF755FD00283FF4AAAEA7
:100B60000C9801F045FCC1E70220FFF74BFD00287F
:100B70003FF4A0AE01F054FCB8E70220FFF742FDBD
:100B800000283FF497AE0CA9142001F04FFC03900D
:100B9000FFF740FD03990CA801F0BCFBC8E602205A
:100BA000FFF730FD00283FF485AE6C4B0CAF03F12E
:100BB000100C1868083353F8041C3A46634503C206
:100BC0001746F6D11020FFF725FD1021E3E732206C
:100BD00001F082FB071EFFF66DAEBB077FF46AAE25
:100BE00007EB0A03D9F8082093423FF663AE0220D0
:100BF000FFF708FD00283FF45DAE27F003075744D8
:100C0000BA453FF495AE50460AF1040A01F0C0FB24
:100C1000FFF700FDF4E74FF47A70FFF7F3FC0028CC
:100C20003FF448AE01F0ECFB002849D0049B0133AF
:100C30000BD0082204A9002001F0AAFC00283FD014
:100C40002022FF2104A801F09BFC4548022101F06D
:100C500061FB444810F0AAFC15B0BDE8F08F002EEF
:100C60003FF428AE019B03F00B030B2B7FF422AE65
:100C7000002364210CA80C9301F042FB07460028D6
:100C80007FF418AE0220FFF7BDFC804600283FF439
:100C900011AE0221324801F03DFB41F2883010F0E4
:100CA00085FC0C9801F0D6FC46463C4601F0B4FCAD
:100CB000E7E506463CE64FF0000AFBE5BB466FE67B
:100CC00037466DE6012001F0EBFBA8F121031F2B55
:100CD0003FF6D7AD01A252F823F000BFA9080008E3
:100CE000C5080008530900088308000883080008A5
:100CF00083080008DD090008CF0B0008970A0008E8
:100D00001D0B0008430B0008690B0008830800084E
:100D10007B0B00089F0B0008170C00083109000826
:100D2000830800085F0C0008B508000831090008B6
:100D3000830800081D0B00088308000883080008CA
:100D40008308000883080008830800088308000857
:100D5000830800088308000853090008F43A0108D2
:100D6000083B0108A0860100094A49F2690013689E
:100D700099B21B0C00FB013344F250611360054B28
:100D8000186882B2000C01FB0200186080B2704744
:100D9000142300201023002070470000002110229F
:100DA00010B5044601F0ECFB034B03CB20606160FF
:100DB0001868A06010BD00BF00E8F11FF0B5ADF5E8
:100DC0004F7D4FF4C47207460D466CAC002120469F
:100DD00001F0D6FB0BF092FF4FF47A72254BB0FB7B
:100DE000F2F0186093E80700022384E807000DF58D
:100DF000E9702382FFF7D2FF47F214331E4907A898
:100E0000238411F0FFFD14230DF2E3220DF12C0CCD
:100E100084F8323107AB1E46083203CE664542F8ED
:100E2000080C42F8041C3346F5D130680DAE106052
:100E300031460122204601F039FC002380B2E97ED0
:100E40000393AB7E029305F11903019301230093F1
:100E500006A3D3E90023CDE9046038460EF02EF94D
:100E60000DF54F7DF0BD00BFAFF300809E6AC42139
:100E7000818A46EE34260020143B01082DE9F0411A
:100E80002C4CDAB080460D46237A5BBB27A9284656
:100E900001F084FD0746002842D19DF89D60C82ED0
:100EA0003ED801464FF4A662204601F069FB4FF49C
:100EB000807332460DF19E01C4F8F8314FF400738F
:100EC00004F109002644C4F80C334FF44073C4F80D
:100ED000203401F023FB9DF89C30777223720BB90C
:100EE000EB7E237206AC8122002127A801F048FB8B
:100EF0000122214627A801F097FD002380B2E97E58
:100F00000393AB7E029305F1190301932823CDE9E6
:100F100004400093404605A3D3E900230EF0CEF829
:100F20005AB0BDE8F08100BFAFF300802641727275
:100F3000DF25D7B794360020F0B5254E4FF48A75DB
:100F4000F1B0002405FB006596F8D830D822214680
:100F500085F8DC303AA885F8E84006AF01F010FBD0
:100F600006F1090001F004FBD5F8E430C2B206F145
:100F700009018DF8F0000DF1F100CDE93A3401F0EE
:100F8000CDFA394601223AA801F084FD082380B247
:100F9000317ACDE9047001270E48CDE9023706F118
:100FA000D80301933023009307A3D3E900230EF065
:100FB00085F8A04206DD0BF0A1FEC5F8E00038463A
:100FC00071B0F0BD2046FBE778F6339F93CACD8D14
:100FD000943600204C3600202DE9F04F274F87B083
:100FE000DFF8A480264E38460EF094F80346002819
:100FF0003CD00024234DADF81440A1460294A246F3
:10100000CDE90344027B8DF8142003AA9968406857
:1010100003C21B6843F0004302932B6804F234546C
:10102000D3F810B00BF06CFE10EB0802CDF800A066
:10103000284605F5A65541F1000302A9D84740F618
:1010400068230028C8BF49F0010910359C42E4D14B
:10105000B9F1000F05D038460EF060F886F800A010
:10106000C1E73378072B04D80133337007B0BDE8EC
:10107000F08F02480EF052F8F8E700BF4C3600201F
:10108000CA3B0020D03B002040420F0070B50D4607
:1010900014461E460DF06EFF50B9022E10D1012CE1
:1010A0000ED112A3D3E900230120C5E9002307E0F4
:1010B000282C10D005D8012C09D0052C0FD00020E9
:1010C00070BD302CFBD10BA3D3E90023ECE70BA3BD
:1010D000D3E90023E8E70BA3D3E90023E4E70BA35C
:1010E000D3E90023E0E700BFAFF30080401DA1205B
:1010F00026812A0B78F6339F93CACD8D9E6AC42130
:10110000818A46EE26417272DF25D7B7F017304A42
:1011100039059E5638B505460E4C0021013501F0C3
:101120005DF9A4F82C55B4F82C0501F03FF978B11D
:10113000B4F82C0501F04AF9014648B9B4F82C0579
:1011400001F04CF9B4F82C350133A4F82C35EAE75A
:1011500038BD00BF94360020F0B589B005460C4676
:1011600016460D494FF4227207A81F4601F0CAFD2A
:10117000BDF83C302A46009604930E9B0748039323
:101180001823CDE9017323460DF03AFF07A801F0BB
:10119000C3FD09B0F0BD00BF7C3600204C360020F6
:1011A000F8B50E4C02260E4FA4F5805343F8407C50
:1011B000237E3BB965692DB1284601F0C7FD28465D
:1011C0000AF0CAFC2046A4F5A65401F0BFFD012E8A
:1011D000A4F1100400D1F8BD0126E5E7E06000208D
:1011E000446301082DE9F04F8FB005460C4600AF6F
:1011F0000DF0C0FE00284BD1237E022B1BD1E38AC9
:10120000012B18D10BF07AFD0646FFF7ADFD034622
:101210004FF4C87006F51676DFF8D082B3FBF0F213
:1012200002FB103316FA83F3C8F80030E37E33B9BB
:10123000A74B00221A703C37BD46BDE8F08F07F17E
:101240002401204601F05EFB0028F4D107F11400D0
:10125000FFF7A4FD97F8264007F1140107F12700D6
:10126000224611F051FB0028E2D10F2C08D8984BF0
:101270001C70D8F80030A3F51673C8F80030DAE710
:1012800097F824100029D6D028460DF06BFED2E73F
:10129000E38A282B33D010D8012B2BD0052BCAD1B1
:1012A000BFF34F8F8B498C4BCA6802F4E062134343
:1012B000CB60BFF34F8F00BFFDE7302BBBD1874E14
:1012C000E17E327A9142B6D1607E3146002291F8B9
:1012D000DC50854200F0AD80013201F58A71042AAC
:1012E000F5D1326840F6B831FA328A4294BF3260A2
:1012F0003160A0E721462846FFF760FD9BE72146C5
:101300002846FFF7BBFD96E7B2F8EC507B6005F18D
:1013100003094FEA99094FEA8902D11DC908A8EBD0
:10132000C10300219D46EB46584601F029F904F11E
:10133000EE012A465846314401F0F0F87B6813B9B3
:10134000012001F023F896F8D20001F02FF80446AE
:1013500030B9307201F054F8204601F017F8B0E0CF
:10136000D6F8D4203AB996F8D200B6F82C258242A5
:1013700001D8FFF7CFFED6F8D4202A44944208D2F1
:1013800096F8D200B6F82C250130824201D8FFF73A
:10139000C1FE5FFA89F25946706801F0F9F808B9A0
:1013A000C54679E0726896F8D2002A447260D6F891
:1013B000D42005EB0209C6F8D49000F0F7FF814570
:1013C00009D396F8D220D6F8D4000132001B86F853
:1013D000D220C6F8D400FF2D0FD80024347201F0BB
:1013E0000FF8204600F0D2FF01F0F8FB3C4B1881CB
:1013F00008B9FFF76BF9C5461DE7BB6896F8D90039
:101400000AFB0362FB68D2F8E41082F8E83001F5C9
:101410008061C2F8E030C2F8E410FFF78DFDFFF7FD
:10142000DBFD96F8D920013202F0030286F8D920BC
:10143000B6E74FF48A7A20460AFB02F505F1EA0185
:10144000314401F05BFBF86000287FF4F4AE012228
:10145000354485F8E8200BF051FCD5F8E020D6EDB6
:10146000007A801A40F6B832B8EE677ADFED1D6A6E
:10147000192838BF1920904228BF104607EE900A5D
:10148000F8EEE77A67EEA67ADFED176AE7EE267ADE
:10149000FCEEE77AC6ED007A96F8D93071680AFB5F
:1014A00003F4BB60321992F8E8505DB1D2F8E43031
:1014B000E8468B423FF428AF002182F8E810C2F8DA
:1014C000E010C5467368064A9B0A01331381B2E6F1
:1014D0004536002000ED00E00400FA0594360020B7
:1014E00034260020CDCCCC3D6666663F48360020D1
:1014F000014B1870704700BF4026002038B54FF0F0
:101500000054144B22689A4222D1607DF8B1124BEC
:101510000025C922114918701148237D0930C0F8EF
:10152000DB5000F8013C4FF48073C0F8EF314FF40A
:101530000073C0F803334FF44073C0F8173400F061
:10154000EDFFE0222946204601F01AF8012038BDBF
:101550000020FCE79AAD44C540260020160000207C
:101560009436002037B501F039FB1F4C1F4D022384
:1015700001221F496B7123682881204604F580549D
:101580005B6898470122D4F8D03404F59A60184972
:101590005B689847002317494FF480520193164B1C
:1015A00016480093164B0DF0B5FC164B197811B187
:1015B00012480DF0D7FC0BF0A1FB0446FFF7D4FB5B
:1015C0004FF4C873B0FBF3F202FB130304F516707B
:1015D00010FA83F00C4B186010F0BAFC08B10F231E
:1015E0002B8103B030BD00BFD03B0020342600204B
:1015F00040420F00442600208D1000084C36002089
:10160000E511000840260020483600202DE9F04F63
:1016100000252DED028B8FB00DF11C08DFF83892FC
:10162000FFF7DAFC0695ADF824500795C8F804508A
:101630009FED7A8B00267F4CDFF8FCB13746012303
:101640000DF10D0203A920468DF80C3023688DF8AA
:101650000D508DED008BD3F808A00023D0479DF8E6
:101660000CA0BAF1000F24D0D9F8143010220021B8
:101670000AA883F40073C9F8143000F081FF2368CE
:1016800004AA06A95F6920460DF10E03B8470BAB0B
:10169000574698E8030083E803009DF824300AA920
:1016A00058468DF83430069B0A93DDE904230DF08B
:1016B00013FF06F2345640F6682304F5A6549E4202
:1016C00004F11004BBD1002FB4D15B480DF052FCE3
:1016D00000283AD1594E0BF011FB3368984234D3AD
:1016E0000BF00CFB0446FFF73FFB4FF4C8738DF87B
:1016F0001870B0FBF3F202FB130304F5167010FA36
:1017000083F030604E4E377817B901238DF81830CA
:10171000C7F110040AA8FFF741FB0AABE4B20DF1D0
:101720001900D919062C28BF06242246013400F0DE
:10173000F5FE06ABE4B2012200930194414B39A1BE
:10174000D1E90001FFF708FD35700BF0D7FA3E4AEA
:101750003E4C1368C31AB3F57A7F2AD310600BF09E
:10176000CFFA02460B4634480DF0E2FC32480DF049
:1017700001FCF0B1237A0AAF354E002B14BF0323CE
:10178000022373710BF0BAFA4FF47A7301223946CF
:10179000B0FBF3F03060304601F038F82D4B80B2EA
:1017A00040F25512CDE9007020A1D1E90001FFF708
:1017B000D3FC237A93B10BF0A1FA002607464FF42D
:1017C0008A7894F8D900304400F0030008FB004305
:1017D00093F8E82072B10136042EF2D1C8200FF040
:1017E000E5FE237A002B7FF417AF0FB0BDEC028B20
:1017F000BDE8F08FD3F8E02042B12368BA1AFA2B83
:1018000038BFFA230533B2EB430FE4D3FFF794FB61
:101810000028E0D1E2E700BFAFF300800000000045
:1018200000000000401DA12026812A0BF1C6A7C19F
:10183000D068080FD03B00204C36002048360020EE
:101840004536002044360020C43B0020943600205A
:1018500034260020C93B00200010025810B5C2B049
:1018600004467C22039123A8002100F089FE039BFB
:1018700022465A210DF1AE0004AC0BF00BFA5A28A7
:1018800021464FF0010228BF5A208DF8AD0023A851
:1018900000F0E4FF094B80B243F6FF72CDE900404F
:1018A00004A1D1E90001FFF757FC42B010BD00BF11
:1018B000AFF30080759D040C8EA454D6C83B002065
:1018C0000FB407B504A951F8040B0191FFF7C6FF47
:1018D00003B05DF804EB04B0704700000EB403B52C
:1018E00003A951F8040B0191FFF7B8FF02B05DF8AE
:1018F00004EB03B07047000010B504460AF02CF961
:10190000204610BD10B50B480AF034FC0A4C0B48B9
:101910000AF030FC0A4A0B49002010F0D7FF20469D
:101920000BF0A0F92046064A0749BDE8104010F028
:10193000CDBF00BFD03B00207C360020A05000204F
:10194000B46E0020A1110008990D00087047000036
:10195000064A00230261064A0362426140F2DC52F9
:101960000285044A02631846704700BF098B0008CD
:10197000A9190008062A6D731FB50368186801F0DD
:1019800035FF1022694601F053FC01460448FFF779
:1019900097FF0321034801F05FFD05B05DF804FBEC
:1019A0002C3B0108706500201FB50C464CF25032EC
:1019B00001A90A480FF024F968B934B1628901A875
:1019C00061680EF059FF2468F7E701A80EF0AAFE3F
:1019D000204604B010BD6FF00200FAE7586F0020F7
:1019E00030B585B00D4600220E4801A90FF020F950
:1019F000A8B94FF4C172BDF8081002F0E3F904462B
:101A0000286034B1628901A861680EF04BFF246838
:101A1000F7E701A80EF0D6FE012005B030BD00208A
:101A2000FBE700BF586F002000212DE9F04104467C
:101A30009EB0084609F0DCFD642000F04FFD2168EF
:101A40004F482A3101F0D0FC606A48BB4D4801F094
:101A5000FFFB01F0CBFE07904B4801F0F9FB01F0D2
:101A6000C5FE0890494801F0F3FB01F0BFFE099064
:101A700023680AA946482A330A930FF0B3F8454B66
:101A800009AA07A920680293434B019300230093FE
:101A900008AB08F0EFFA024670B140480BF022F9AB
:101AA00001F0A4FE0790E06A01F0A0FE0990A06A90
:101AB00001F09CFE0890DBE739490590206808F0AA
:101AC000FBFA059A3749206808F0F6FA364916A855
:101AD0002F4E0AF001F816A80AF006F84FF0FF336F
:101AE00001220CA91CA8314F0FF078FA022311A98A
:101AF0002F481A46DFF8C4800FF070FA03200FF069
:101B000081FA4FF0FF300FF0B5FAC207054611D544
:101B100030460FF0A5F8216891F83130C3F3800307
:101B2000984207D030B3234809F020FD21462248CF
:101B300009F01CFDAB07E4D540F606050BA92068AB
:101B4000FFF74EFF0028DCD00B9B002BF6D05B6824
:101B5000988901F047FEB0F5006F01D0A84205D189
:101B600021680B98CB6898470028E7D00B9802F0C3
:101B7000C7F8E3E7384609F0F9FC21464046D7E7C5
:101B8000343B0108463B0108543B0108603B010817
:101B9000586F002051B50008511900086E3B01082C
:101BA000A1380008E93A0008404B4C006D3B0008A2
:101BB000706F00202D3B0008791900084D190008AE
:101BC00008B5FFF731FF00002DE9F74F804600917F
:101BD00000F0CEFC00F5806010F04EF805460028BD
:101BE0004AD00446C14699F900B0BBF1000F41D07C
:101BF000A9EB0803009A93423CD2BBF17B0F09F199
:101C0000010703D004F801BBB946ECE77D21384653
:101C100010F0EAFE06460028F4D0A0EB09024FF0CF
:101C2000030BDFF85C9002F1FF3AD9F80030184658
:101C3000019300F09DFC5045019B11D1524639465D
:101C4000184600F075FC58B9D9F80470204639469A
:101C500010F0D8FE384600F08BFC771C0444D3E724
:101C6000BBF1010B09F10809DFD14FF07B0304F848
:101C7000013BC9E700232370284603B0BDE8F08F7D
:101C800018230020F7B54FF480600E460E4F0FF07A
:101C9000F3FF04460546642301220DF10701304697
:101CA00001F024FA01280CD19DF8073005F8013B1A
:101CB0002B1B032BEFDD3946281F00F04DFC0028BD
:101CC000E9D1204603B0F0BD933C01082DE9FF4166
:101CD0000446202009F03AFF054610B1002101F02A
:101CE00085F9502227492846274FDFF8A88001F0C0
:101CF00063FB1421284601F051FA1421284601F013
:101D000059FA94F8303006467BB1002384F830301D
:101D1000BFF34F8F1D491E4BCA6802F4E0621343A4
:101D2000CB60BFF34F8F00BFFDE794F831203AB18D
:101D30004FF47A7084F8313000F0D0FBFEF7C6FC27
:101D4000002EDAD0082009F001FF3C2241463B4634
:101D5000C0E90046009040F6F8100FF0D1FF40F2C5
:101D6000552204F1080103A800F0CCFF206A20B13D
:101D7000C36B23620FF0D2FBF8E703A800F0CCFF9F
:101D8000BBE700BF8C3B01081521000800ED00E017
:101D90000400FA05943B010808B5FFF797FF00001F
:101DA00013B5044601F0B8FC0EF006FF3C2009F024
:101DB000CDFE0A4B20603C22094940F6F810009401
:101DC0000FF09EFF074B3C220749606040F6F81079
:101DD00000940FF095FF02B010BD00BFC11B0008BA
:101DE000A03B0108991D0008A83B01084FF00053D3
:101DF000054A1968914206D15A6822B142629A682E
:101E0000C262DB68836270479AAD44C50EB477B591
:101E1000044607AD00F134014FF4227255F8046B0B
:101E20004C34684600F06EFF2B4632464FF480710A
:101E3000204601950AF02EFF21460548FFF740FD98
:101E4000684600F069FF03B0BDE8704003B070471A
:101E50002F3B01082DE9F04F0746ADF5037D88467D
:101E6000144600256423012202A9404601F03EF9F0
:101E7000012840F0A8809DF90830013C0D2B04D1C9
:101E8000022D0CBF03250125ECE70A2BE9D105F053
:101E9000FD06012EE5D10135EDB2042DE2D14E490A
:101EA0003846FFF7B3FF3046002600F06FFA3046A1
:101EB00000F07CFA90B10021304600F08FFA68B152
:101EC00001360A2000F00AFB30460FF053FD0546AC
:101ED00000200FF04FFD281AA042E8D324F003049D
:101EE0004FF000094FF0640BDFF8FCA0B4F5001FC1
:101EF0004E4628BF4FF40014A6423ED2A21B42F227
:101F0000107302A94046B2F5007F28BF4FF400725B
:101F1000019201F0EBF8051E2FDD15F003010ED044
:101F2000019A95420BD2C1F1040202A942F2107348
:101F30004046294401F0DAF80028C8BF2D18304681
:101F40002E44C5F3870202A90BFB06F500F020FB27
:101F50000A22B5FBF4F5EDB2B5FBF2F302FB135325
:101F6000DBB23BB9A94506D02A4651463846FFF7B1
:101F70004DFF00E04D46A946BEE716F01F040DD008
:101F80004FF40072FF2102A800F0FAFAC4F1200217
:101F900002A93046C2F3870200F0FAFA00F030FAE4
:101FA000002000F0F3F900F019FE024678B9012391
:101FB0000A49384687F83130FFF728FF662208497A
:101FC000404601F04BF80DF5037DBDE8F08F054963
:101FD0003846FFF71BFFF6E7B43B0108CE3B01088C
:101FE000DD3B0108443C0108C03B0108F0B50C464C
:101FF00085B00646FFF746FE05463F223D4920468E
:1020000001F02CF807223C49284600F091FAF8B973
:102010003A49284610F012FD20B93949284610F0F7
:102020000DFDA8B1113010F057FC21460246304694
:10203000FFF710FF284609F08FFD002C49D02046FD
:1020400000F0E8FF204605B0BDE8F04009F084BD8F
:102050001B222C49284600F06BFAA8B94FF40172F4
:1020600006F1340103A800F04DFE06F14C010846CC
:10207000019100F07DFA01990246204600F0EEFF42
:1020800003A800F049FED5E70B221F49284600F0BF
:102090004FFA10B9012386F83030002303A91B48FA
:1020A000039309F047FD96F8303007469BB148226C
:1020B0001749204600F0D2FF284609F04DFD2CB10B
:1020C000204600F0A7FF204609F046FD384609F0FB
:1020D0003BFD05B0F0BD0399FFF776FD064600F025
:1020E00047FA02463146204600F0B8FF304609F074
:1020F00033FDE1E7583C0108983C0108A03C010889
:10210000B23C0108C43C0108E03C0108EC3C010879
:10211000F73C010873B50446D0E90001FFF766FFFC
:1021200025680A4B2046DE6809F016FD40F22E2293
:1021300005F1080101A800F0E5FD2B6A01A8F36391
:102140002E6200F0E9FD02B070BD00BF587800209B
:102150002DE9F84F4FF47A7306460D46002402FB32
:1021600003F7DFF85080DFF8509098F900305FFAFD
:1021700084FA5A1C01D0A34212D159F824002A46ED
:1021800031460368D3F820B03B46D847854207D193
:10219000074B012083F800A0BDE8F88F0124E4E795
:1021A000002CFBD04FF4FA700FF000FA0020F3E798
:1021B000C0650020302300203423002000232DE9B7
:1021C000F0471A4605468846012019460EF054F895
:1021D000044680200FF054FD0746002861D0002CF3
:1021E0005FD03B4E28464FF0800A736943F0C063CE
:1021F0007361D6F8143143F0C063C6F814310FF0A0
:10220000C1FB05EB080200FB05F34FF4D06C504313
:102210004FF03D0E834233D23269520143D4D6F897
:10222000102151013FD4216803F100628A602268C5
:10223000D7602268C2F804A02268C2F800C0D4F8AF
:102240000090D9F8002042F00102C9F80020D4F82B
:102250000090D9F8002022F01E02C9F80020D4F81E
:102260000090D9F80020D207FBD494F80C9080336A
:1022700061680EFA09F20A60CCE700200FF060FCFA
:1022800020460EF039F838460FF036FD104B5A69EB
:1022900042F0C0625A61D3F8142142F0C062C3F820
:1022A0001421BDE8F0870B4B9A6A42F400729A62DF
:1022B0009A6A42F400429A6261B6002601200FF049
:1022C0003FFCB045D9D9A81901360FF073FBF8E7E8
:1022D0000020005200ED00E0002307B50246012176
:1022E0000DF107008DF80730FFF732FF20B19DF8A0
:1022F000070003B05DF804FB4FF0FF30F9E7000082
:102300000A46042108B5FFF723FF80F00100C0B2A0
:10231000404208BD074B0A4630B41978064B53F8C3
:102320002140014623682046DD69044BAC4630BCA1
:10233000604700BFC065002034230020A086010054
:1023400070B5104C0025104E0FF020FB2080306837
:10235000238883420CD80025208801380FF012FB17
:1023600023880544013BB5F5802F2380F4D370BD4D
:102370000FF008FB336805440133B5F5802F336057
:10238000E5D3E8E7C26500207C6500200FF0D8BBEC
:1023900000F1006000F580200068704700F10060E7
:1023A000920000F580200FF04DBB0000054B1A682D
:1023B000054B1B889B1A834202D910440FF0E2BAE6
:1023C000002070477C650020C2650020024B1B681E
:1023D00018440FF0DDBA00BF7C650020024B1B687B
:1023E00018440FF0E7BA00BF7C650020002070475A
:1023F00000F1FF5000F58F10D0F800087047000082
:10240000064991F8243033B100230822086A81F884
:102410002430FFF7C3BF0120704700BF8065002054
:10242000014B1868704700BF0010005C194B013861
:102430000322084470B51D68174BC5F30B042D0C1F
:102440001E88A6420BD15C680A46013C82421346B4
:102450000FD214F9016F4EB102F8016BF6E7013AA1
:1024600003F10803ECD181420B4602D22C2203F87F
:10247000012B0424094A1688AE4204D1984284BF35
:10248000967803F8016B013C02F10402F3D1581A6B
:1024900070BD00BF0010005C3C230020A83D010877
:1024A000022803D1024B4FF000729A61704700BFBF
:1024B00000100258022803D1024B4FF400729A61B7
:1024C000704700BF00100258022804D1024A536925
:1024D00083F40073536170470010025870B50446CE
:1024E0004FF47A764CB1412C254628BF412506FB96
:1024F00005F0641B0FF05AF8F4E770BD70B50446A0
:1025000041F6641644B1B442254628BF35462846F4
:10251000641B0FF04BF8F5E770BD0000002310B509
:10252000934203D0CC5CC4540133F9E710BD0000E2
:10253000013810B510F9013F3BB191F900409C42C0
:1025400003D11AB10131013AF4E71AB191F900202F
:10255000981A10BD1046FCE70138013910F9013F07
:1025600011F9012F0BB19342F8D0981A704700006F
:1025700003460246D01A12F9011B0029FAD170470E
:1025800002440346934202D003F8011BFAE7704766
:102590002DE9F8431F4D14460746884695F8242038
:1025A00052BBDFF870909CB395F824302BB92022F1
:1025B000FF2148462F62FFF7E3FF95F824004146CC
:1025C000C0F1080205EB8000A24228BF2246D6B225
:1025D0009200FFF7A3FF95F82430A41B17441E4474
:1025E0009044E4B2F6B2082E85F82460DBD1FFF700
:1025F00007FF0028D7D108E02B6A03EB8203834250
:10260000CFD0FFF7FDFE0028CBD10020BDE8F88336
:102610000120FBE780650020024B1A78024B1A70FC
:10262000704700BFC06500203023002010B5074C64
:102630004FF4E133064920680B600EF0A9FC606896
:102640000349BDE810400EF0A3BC00BF34230020B6
:10265000A8650020094B1822002110B50446184631
:10266000FFF78EFF064A074B01461278046053F8C5
:102670002200BDE810400EF08BBC00BFA865002012
:10268000C06500203423002008B571B6054B1988B9
:10269000054B1888FFF792FD02210E20FFF78EFDF3
:1026A00061B608BDC26500207C6500202DE9F347B6
:1026B0000D46044600219046284640F27912FFF765
:1026C0005FFF234620220021284604F122070CF058
:1026D000A5FE231D022220212846C0260CF09EFEC6
:1026E000631D0322222128460CF098FEA31D03221D
:1026F000252128460CF092FE04F10803102228211F
:1027000028460CF08BFE04F11003082238212846DD
:102710000CF084FE04F111030822402128460CF03D
:102720007DFE04F112030822482128460CF076FEB3
:1027300004F114032022502128460CF06FFE04F10E
:1027400018034022702128460CF068FE04F1200393
:102750000822B02128460CF061FE04F12103082272
:10276000B82128460CF05AFE314608363B4608226E
:10277000284601370CF052FEB6F5A07FF4D194F84C
:102780003230314604F1330A00268DF80730082232
:102790000DF1070328460CF041FE9DF807304FEA83
:1027A000C6099E4209F5A47720D394F83231502B04
:1027B00028BF50238DF80730B8F1000F08D13946F3
:1027C00009F24F170DF10703072228460CF026FEE9
:1027D000002604F233149DF8073007EBC6019E4231
:1027E0000DD30731C80802B0BDE8F0870AEB060335
:1027F00008223946284601360CF010FECDE7A31911
:102800000822284601360CF009FEE4E713B5044619
:10281000084600212022234601900160C0F80310E1
:102820000CF0FCFD231D0198022220210CF0F6FD86
:10283000631D0198032222210CF0F0FDA31D0198D5
:10284000032225210CF0EAFD019804F1080310226F
:1028500028210CF0E3FD072002B010BD2DE9F34163
:102860000D4604460021164628467B22FFF788FEC7
:1028700023460322002128460CF0D0FD6378052270
:1028800003211F2B284628BF1F238DF806300DF18A
:1028900006030CF0C3FD0123DF0003F101089DF8DE
:1028A0000620013B9A421CD894F821305A2B28BFAD
:1028B0005A238DF807303EB9394607370DF1070323
:1028C000072228460CF0AAFD002622349DF8073086
:1028D00007EBC6019E420DD30731C80802B0BDE820
:1028E000F08104EB08030822394628460CF096FDD7
:1028F0004346D1E7A3190822284601360CF08EFD85
:10290000E4E70000F7B5047F05460E462CB1838A44
:10291000122B02D9012003B0F0BD00230722284664
:10292000009619460CF03EFC731C0122072100930F
:10293000284600230CF036FCD4B9B31C052208212C
:102940002846009323460D240CF02CFCB378102B62
:10295000E0D83746BB1BB278934210D307342B7FA5
:10296000A88AE408B3B9844294BF00200120D2E7CA
:10297000AB8A0824DB00083BDB08B370E6E7FB1CEE
:1029800021460822284600930023083401370CF022
:1029900009FCDFE7201A18BF0120BCE7F7B5047F68
:1029A00005460E462CB1838ACA2B02D9012003B0FA
:1029B000F0BD002308222846009619460CF0F2FBD1
:1029C000731CD4B9082200932346102411462846CC
:1029D0000CF0E8FB7378C82BE8D801235F1C7278F1
:1029E000013B934210D307342B7FA88AE408B3B984
:1029F000844294BF00200120D9E7AB8A0824DB0081
:102A0000083BDB087370E5E7F319214608222846E6
:102A1000009300230CF0C6FB08343B46DEE7201A87
:102A200018BF0120C3E70000F7B50D46044600219A
:102A3000164628468122FFF7A3FD234608220021DF
:102A400028460CF0EBFC94F901206378002AB8BF0B
:102A50007F238DF807309EB90F270DF1070307225A
:102A6000082128460CF0DAFC002602349DF80730D5
:102A700007EBC6019E4205D30731C80803B0F0BD7D
:102A80000827F1E7A3190822284601360CF0C6FCF6
:102A9000ECE70000F7B50E46054600211446304627
:102AA000CE22FFF76DFD2B462822002130460CF088
:102AB000B5FC2B7AC82B28BFC8238DF807308CB9FA
:102AC00030240DF107030822282130460CF0A6FC23
:102AD0002F467B1B9DF80720934205D3E01DC008BD
:102AE00003B0F0BD2824F3E707F1090321460822CB
:102AF0003046083401370CF091FCEAE7F7B5047F63
:102B000005460E4634B1838AB3F5827F02D901208F
:102B100003B0F0BD012310220021284600960CF0DE
:102B200041FBDCB9B31C092210212846009323463F
:102B300019240CF037FB7388B3F5807FE7D837464C
:102B4000BB1B7288934210D307342B7FA88AE408FA
:102B5000B3B9844294BF00200120D9E7AB8A102486
:102B6000DB00103BDB087380E5E73B1D21460822B4
:102B7000284600930023083401370CF013FBDFE7ED
:102B8000201A18BF0120C3E730B50A44084D91420E
:102B90000DD011F8013B5840082340F30004013BDD
:102BA0002C4013F0FF0384EA5000F6D1EFE730BD6C
:102BB0002083B8ED10B50144074C884209D010F8C5
:102BC000013B83EA122334F8133083EA022292B2E3
:102BD000F3E7104610BD00BFB83D0108F7B5384A0D
:102BE0006B46106851686A4603C308233549364866
:102BF0000FF09AFE0446002833D10A25334A6B466B
:102C0000106851686A4603C3082331492E480FF003
:102C10008BFE0446002849D00369B3F5E01F45D870
:102C2000B0F8661041F2734291423FD1294A024402
:102C300002F15C018B4239D35C3B234900209E1A90
:102C4000FFF7A2FF04F16401074632460020FFF7B8
:102C50009BFFA3689F4229D1E368984208BF0025E3
:102C600024E00369B3F5E01F27D8418B41F273429A
:102C7000914220D1174A024402F110018B4218D32D
:102C8000103B114900209D1AFFF77EFF04F1180147
:102C900006462A460020FFF777FFA3689E4202D12E
:102CA000E368984201D00D25A8E70025284603B027
:102CB000F0BD1025A2E70C25A0E70B259EE700BF7D
:102CC000B83F0108DCFF1B0000000408C13F0108F9
:102CD00090FF1B000800FCF707B5074A6B46106819
:102CE00051686A4603C30823044905480FF01CFED7
:102CF00003B05DF804FB00BFB83F0108DCFF1B0018
:102D00000000040810B50B68044608469B68216063
:102D10009847204610BD000010B5044600680368BF
:102D2000DB689847204610BD70B5002604460D4666
:102D3000C0E9026601200EF0DBFFB04220602046B1
:102D400008BF35462674656070BD000010B5037C71
:102D5000044613B900680EF0CFFF204610BD0000F6
:102D60000023BFF35B8FC360BFF35B8FBFF35B8F49
:102D70008360BFF35B8F7047BFF35B8F0068BFF367
:102D80005B8F704770B505460C30FFF7F5FF0446C2
:102D900005F108063046FFF7EFFFA04206D96D683F
:102DA0003046FFF7E9FF2544281A70BD3046FFF78B
:102DB000E3FF201AF9E7000070B505464068A0B1AE
:102DC00005F10C0605F10800FFF7D6FF0446304672
:102DD000FFF7D2FF844204F1FF34304694BF6D68A0
:102DE0000025FFF7C9FF2C44201A70BD38B50C46EA
:102DF0000546FFF7C7FFA04210D305F10800FFF713
:102E0000BBFF04446868BFF35B8FB4FBF0F100FBC9
:102E100011440120AC60BFF35B8F38BD0020FCE79C
:102E20002DE9F041144607460D46FFF7C5FF8442E1
:102E300028BF0446D4B1B84658F80C6B4046FFF79B
:102E40009BFF3044286040467E68FFF795FF331AA9
:102E50009C4203D801206C60BDE8F081A41B6B602C
:102E60003B682044AB60E8600220F5E72046F3E7CA
:102E700038B50C460546FFF79FFFA04210D305F179
:102E80000C00FFF779FF04446868BFF35B8FB4FB65
:102E9000F0F100FB11440120EC60BFF35B8F38BD03
:102EA0000020FCE72DE9FF418846694607466C464D
:102EB000FFF7B6FF002506B204EBC606B4420AD0FF
:102EC000626808EB050120680834FFF727FB54F817
:102ED000043C1D44F2E729463846FFF7C9FF28465F
:102EE00004B0BDE8F0810000F8B505460C300F468F
:102EF000FFF742FF05F1080604463046FFF73CFFA6
:102F0000A042304688BF6C68FFF736FF201A386051
:102F100020B12C683046FFF72FFF2044F8BD000099
:102F200073B5144606460D46FFF72CFF8442019008
:102F300028BF0446DCB101A93046FFF7D5FF019B4D
:102F400033B93268C5E90233C5E9002401200CE039
:102F50009C42286038BF0194019884426860F5D98A
:102F60003368241A0220AB60EC6002B070BD2046CA
:102F7000FBE700002DE9FF410F4669466C46FFF76D
:102F8000CFFF00B2002604EBC005AC4209D0D4F854
:102F90000480B81954F8081B42464644FFF7BEFAAD
:102FA000F3E7304604B0BDE8F081000038B50546CF
:102FB000FFF7E0FF044601462846FFF717FF2046CB
:102FC00038BD00001FB504464FF0FF331046217096
:102FD0006261A36139B9042301220621009303AB86
:102FE000039208F019F8204604B010BD38B50D1E44
:102FF00004464FF000024FF0020014BF02210121ED
:1030000007F06EFE294602462046FFF7DBFF20460A
:1030100038BD000010B504464069421C01D007F0DD
:1030200083FCA069431C01D007F07EFC204610BD44
:103030001FB54069431C0ED00123042240F6FF71E6
:10304000039303AB009207F0E7FF013018BF0120A4
:1030500005B05DF804FB0020FAE700004069431C5E
:1030600002D0202307F0FEBD704700001FB5406965
:10307000411C09D00123202240F6FF710393042351
:10308000009303AB07F0C8FF05B05DF804FB000038
:1030900010B5846988B00023621CCDE9023302D1E7
:1030A0004469621C20D008AA630904F01F0002EBE7
:1030B00083030122824043F8182C4FF47A720023D4
:1030C000B1FBF2F002FB1011514304AACDE9040355
:1030D0000691601C009202A91A4607F03BFE431EAF
:1030E0005842584108B010BD1846FBE72DE9F041A1
:1030F0000F468CB0194604469046FFF7C9FF30B919
:103100000FF0FCFB0B2303604FF0FF3542E0A56995
:10311000102304AE102202936B1C4FF000013046C6
:1031200008BF6569FFF72CFA02AB424628463946CC
:10313000CDE90063082307F0BFFC051E24DD221D36
:1031400008AF3346083203CBBB4242F8080C42F8C2
:10315000041C1E46F5D1A36901331BD0102303AA1A
:1031600039466069039307F053FF0028CCD16368A8
:1031700023F0FF02089B23F0FF039A420AD1A268C2
:10318000099B9A4206D1BFE723781BB9237F0BB175
:1031900005B9257728460CB0BDE8F08108B540692F
:1031A000431C05D007F05EFCB0FA80F0400908BD72
:1031B0000020FCE77FB543690446013303D10024B6
:1031C000204604B070BDFFF763FF0028F7D010233E
:1031D00002AA211D6069029307F0BEFA431C05464E
:1031E000EDD0202008F0B2FC04460028E8D00023EF
:1031F00001264561062103704FF0FF3332460396E6
:10320000836104232846009303AB07F005FF2046A3
:103210002677FFF70DFFD3E708B5486800F0E6FA18
:1032200000F10050B0F1805F2CBF0020012008BDEC
:1032300013B50C460092019000F0D8FA009B22468C
:1032400001A90190022008F0CBF802B010BD0000E7
:10325000002307B5014601AA0220019308F0DCF81B
:10326000019800F0C3FA03B05DF804FB70B5164690
:10327000184610220D4600211C46FFF781F9304602
:1032800000F0B0FA0223608028466370FFF7E0FF89
:1032900000F0ACFA606070BD2DE9F04143698EB07A
:1032A0000446013304D1002528460EB0BDE8F08164
:1032B000012306AD03932B46FFF7D8FF2378002B9D
:1032C00040D029462046FFF7A7FF80B30221002205
:1032D000084607F005FD431C0746A061E3D00AAE8F
:1032E0004FF0000895E80F0086E80F00042203ABBA
:1032F00040F6FF7138460092CDE9048807F08CFE55
:1033000010223146A06907F0D5FA01304BD0079B57
:103310004046049300F06AFA0823059003224146D0
:10332000009304ABA06907F077FE01303BD023780F
:1033300043B1079B013305D12046FFF797FE204696
:10334000FFF776FE10222946606907F04BFB064620
:103350000028A8D10123257823775DB3079B01338B
:10336000A2D110270AA960690DEB0702049707F0A4
:103370004FFE013097D002213246084607F0B0FCDC
:103380000346A06101330ED0042203AB40F6FF7167
:10339000009207F041FE3A460AA9A0690B9607F091
:1033A00089FA013080D1A06907F0BEFA4FF0FF33EF
:1033B000A36178E71D4677E71FB5436904460133EB
:1033C0000FD06B46FFF752FF2046FFF731FE102269
:1033D0006946606907F06EFAB0FA80F0400904B0FF
:1033E00010BD0020FBE7000070B586B005460C4616
:1033F000FFF7BEF81128024621D1294601A80FF097
:1034000009FB651E002305340E4E6A460D4901A8CE
:103410008DF8153000930FF04FFB80B11022002182
:103420000FF04CFCFF280AD805F8010F6A46314618
:1034300000200FF041FBAC42EFD1012000E0002062
:1034400006B070BDB03C010808B50B460146014806
:1034500009F048FCCC3F010807B5064B3C2201723D
:103460000549009042F2F8100EF04AFC03B05DF8F6
:1034700004FB00BF11370008DC3F01080129F0B54B
:10348000074695B00C46164629D850F8212032B38D
:1034900013F0040123D14A2201A8FFF771F842F684
:1034A0003413307BADF804303368CDF80A3009F0BE
:1034B000EDFC05460246311D0DF10E00FFF72EF81A
:1034C0004FF6FF72A91D02A8FFF774FB05F10A026F
:1034D000ADF8060001A957F82400FFF7BFFD15B0AD
:1034E000F0BD0000FFF7CABF2DE9F04F0546A1B0BF
:1034F00000247E4E0DF114082F46DFF80C920620B2
:10350000DFF808A27A49FEF7E9F90594C8F8044003
:103510002B7AE340DB077CD5202008F017FB83469D
:1035200010B10121FFF762FDC7F800B0BBF1000F39
:103530006FD122466F490320FEF7D0F906F5A65653
:1035400004371036002C62D0A5F104094646674CBA
:103550006420FEF7D3FFCB4659F8040F002800F093
:10356000BA8000234A220DA9FFF7C0FDA0F10B038A
:1035700082463F2B29D8BDF8342042F634139A42B4
:1035800040F0A980011F4FF6FF720EA8FFF712FB53
:10359000BDF83630834240F09E800022AAF10A0333
:1035A000376809A8DBB2DDF83A1000920DF13E024F
:1035B00009F04CFC3F683846FFF7FEFB0F2804D9A2
:1035C000102209A93846FFF76DFC00230993ADF8D6
:1035D0003030CDE90A333368102209A9D3F800A0AE
:1035E0005046FFF7C7FC1028074674D109F088FB46
:1035F000042310F5FA622046009341F1000309A963
:1036000009F0CCFB39465046FFF7F0FBE3E7012415
:103610007EE7D9F804100DABD9F8000003C3D9F840
:103620000800186000230DA88DF82430FEF7A0FFD5
:1036300020AB4EF284120DA9184404F1300300F8B7
:103640004D3C3868FFF728FE90B922462A490320EE
:10365000FEF744F9D7F800B0BBF1000F05D058468B
:10366000FFF7D8FC584608F077FA00233B6065E77F
:1036700033682946214A3046D3F834B01F4B0795AA
:10368000089309ABD84710B922461D49DFE7DAF89D
:103690000830082043F01003CAF8083008F056FA42
:1036A000834678B1142008F051FA034628B14FF44C
:1036B000A8710390FFF738FB039BCBF80030002381
:1036C0008BF8043048F824B0BBF1000F7FF436AF1C
:1036D00022460C49BBE704F5A654AB4506F10406A7
:1036E00004F110047FF437AF2EE700BFD03B002079
:1036F000E83F0108FC3F010823400108E5340008C9
:1037000044400108664001089040010800800240E2
:1037100008B5FFF7E9FE0000F8B5012000230133EA
:103720004000DBB20E2BFAD10EF0DEFA00284CD0AE
:10373000264A0623C2F89830254BC2F89C00C2F8EE
:10374000A0300523C2F89430536A43F480335362A7
:103750000023C2F88430BFF34F8FD2F8803043F695
:10376000E075C3F3C904C3F34E335B0103EA0507F5
:10377000214647EA81760139C2F87462F9D2203BCA
:1037800013F1200FF2D1BFF34F8FBFF36F8F114BA7
:1037900000F140021860104B1A6000F160020F4BFC
:1037A0001A6000F254625A6000F648429A6000F5CE
:1037B00091521C32DA6000F5C15300F5F150084A0D
:1037C00010330430136050600120F8BD00ED00E0BC
:1037D0001B000C03D4650020E0650020C4650020B8
:1037E000D865002040BA80B27047000000BA704728
:1037F0006FF00B007047000010B5044628B90F4A5F
:1038000040F299310E48FFF71FFE94F8313003F073
:103810000502052A10D1226872B11A0703D5214684
:10382000204605F01FF894F831309B0604D5204659
:10383000BDE8104005F092BB10BD00BF9C400108E0
:10384000C040010873B5044616460D4629B9114A11
:103850004FF4EE711048FFF7F7FD23682A689A428B
:1038600001D1002014E0336001A93046019201F03B
:103870004FF901A9304604F021FE2B6801212046B2
:103880002360FFF7B9FFA3690BB1204698470120D9
:1038900002B070BD9C400108E44001087047000080
:1038A00010B5044607F0A2FF014B1C6010BD00BF1D
:1038B000E865002010B5044607F098FF54B1064BA8
:1038C000186830B190F834300133DBB2A34218BF2E
:1038D000002010BD2046FCE7E865002010B5044636
:1038E00007F084FF0CB9002010BDA01C0EF0F4FFFF
:1038F00010F0FF0303D194F90220302AF3D10A4AD1
:1039000010680028EFD090F834209A42EBD194F957
:10391000002090F932309A42E5D194F9012090F9D3
:1039200033309A42DFD1DFE7E86500200C4B2DE908
:10393000F0410E4617461C68054628B9094A40F270
:1039400047710948FFF780FD0CB9BDE8F081D4E963
:1039500000383A463146284644469847F4E700BFC7
:10396000E46500209C400108F44001082DE9F04383
:1039700087B099460E469046054607F037FF2C4B18
:10398000002E08BF1E46B8F1000F08BF9846B9F1D7
:10399000000F08BF99463368002B45D102AF31466E
:1039A00028463A46FFF74EFF044688B30397102493
:1039B00001276A68D8F8003093421EBF009244F095
:1039C00040046B60AA68D9F8003018BFCDF810D059
:1039D00093421FD0AB6001AB44F0200401920593E9
:1039E0005FB90DF10808314628464246FFF72AFF25
:1039F000A8B144F01004CDF80C8044F0800487B1E5
:103A000003AA21462846FFF791FF07B0BDE8F083DF
:103A10000127CEE7002FE4D0002CF6D0EDE7002CF4
:103A2000EBD144F48064EBE700273C46C1E700BFDC
:103A3000045801082DE9F843DDF82490984604461F
:103A40000E46174607F0D2FE224B1D684DB10025E9
:103A5000214A40F22D112148FFF7F6FC2846BDE827
:103A6000F883002CFAD0B9F1000FF7D01C4B204698
:103A70001C492361089B002F14BF3A460A46A560E3
:103A800023620A9B2585E360B8F1000F14BF43460B
:103A90000B4684F83150002E18BF31466562A5638D
:103AA00084F83450C4E90055C4E90655FFF75EFFB9
:103AB0002046C8470028D1D194F831309B0602D562
:103AC000204605F09BFA0022012120462546FFF7FB
:103AD0002DFFC3E7E86500209C4001080C41010868
:103AE000F1370008045801081FB5044607F07EFEB0
:103AF000D4B194F83130DA0716D443F0010384F8D6
:103B00003130A3690BB1204698470123204601AA12
:103B100008218DF80430FFF709FF0321204604B087
:103B2000BDE81040FFF768BE04B010BD1FB50446E5
:103B300007F05CFEBCB194F831305A0713D443F05F
:103B400004030321204684F83130FFF755FEE36972
:103B50000BB120469847012301AA042120468DF885
:103B60000430FFF7E3FE04B010BD00001FB50446AB
:103B700007F03CFE9CB194F831305A070FD523F082
:103B8000040384F83130E3690BB1204698470023E1
:103B900001AA042120468DF80430FFF7C7FE04B0C7
:103BA00010BD000008B507F055FF084B00221A7041
:103BB00007F058FF064B186800B908BD436F1BB1EA
:103BC000BDE8084000F06ABEC068F5E7EC6500207B
:103BD000F065002038B560B9144A4FF4F17114480B
:103BE000FFF732FC01201FE0002AFBD04268511A87
:103BF00014E0B1F5803FF5D2A9B103898CB213FA74
:103C000081F39BB29C42EDD890F90C50002DEBDA79
:103C10004268511A00F110029142E3D34289416097
:103C2000144403814481002038BD00BF28410108AD
:103C30000A42010822F04003012B70B506460D46EA
:103C4000144605D0094A4FF4A5710948FFF7FCFB5B
:103C50000D2009F0C5FA40B1002305814581437369
:103C60000473C0E900360123C38170BD28410108F7
:103C70004C410108033020F0030070B50E18BDF868
:103C80001450049CAE420DD804B1044418460023DD
:103C9000C0E900340223018141814373012302738F
:103CA000C38170BD0020FCE70022FFF793BF000036
:103CB00010B538B90C4A40F24E210C48FFF7C4FB4E
:103CC000012010E0B1F5803FFAD259B18AB24389A0
:103CD0009A42F5D89B1A4468438121440389416084
:103CE0009B1A0381002010BD284101080A420108E7
:103CF0000B1E02DA5942FFF7DBBF0122FFF76ABF52
:103D00002DE9F047044648B92546294A40F2DE210C
:103D10002848FFF799FB2846BDE8F0870025244F87
:103D2000DFF89880DFF8989007F094FEA37B824636
:103D30002BB93A4640F2F3214046FFF785FBA67BBC
:103D40005046013EF6B2A67307F08CFE002EE2D17B
:103D5000637B26689B0710D523692BB93A4640F24E
:103D600001311548FFF770FB23692046984701355C
:103D7000EDB2002ECFD03446D6E7237B03F00F03FD
:103D8000022B04D121460E2009F036FAEFE7012B71
:103D900002D121460D20F7E71BB9204609F0CCF9E6
:103DA000E5E73A4640F211314846FFF74DFBDEE7C2
:103DB000284101080A4201087641010860410108D2
:103DC00097410108B2F5C17F2DE9F84F04460F462F
:103DD00013D008D822F04003012B07D10020BDE802
:103DE000F84FFFF727BFB2F5207F5BD03B4A40F288
:103DF00027113B48FFF728FB21E0002684B2DFF8BB
:103E0000DC903546DFF8ECA00E20B34609F0E8F967
:103E10000646D0B9334C07F01DFE012327782370E6
:103E2000FFB207F01FFE4FB931462F4807F09EFB47
:103E300020B107F00FFE267007F014FE0DB9002523
:103E40002BE02846FFF75CFFF9E7E31C0444002160
:103E5000264A23F0030313340160C3F5807824F06D
:103E6000030407811FFA88F84460C260B84528BF80
:103E7000B846B3F5807FA0F80A8005D14A464FF4D2
:103E800081715046FFF7E0FA55B1CBF80060A7EB1F
:103E900008070024BFB2002FB6D12846BDE8F88F2E
:103EA0003546F4E7CB1C033023F0030320F0030076
:103EB000184410308342C2D809F024F9054600287E
:103EC000EBD004440023078113340360084B24F033
:103ED00003044781C3604460DFE700BF2841010855
:103EE000E0410108EC650020A53B000882000100CC
:103EF00080000100AC4101082DE9F0410D46044667
:103F000028B9234A4FF4CC712248FFF79DFA238940
:103F1000AB423BD9EE1A1E4FDFF884806389AB4277
:103F20001BD3227B120729D1AB4227D0637B9B078F
:103F300024D461682046091B294409F0E1F8D8B966
:103F4000134A40F2BD111448FFF77EFA104A40F2BE
:103F5000BF111248FFF778FA10E0ED1A23893344B5
:103F6000ADB223812468002CD8D13A4640F2AF117B
:103F70004046FFF769FAD1E78442E7D120686581BE
:103F8000258108B1FFF7BCFE00232360BDE8F08166
:103F900028410108FC4101082C420108484201085F
:103FA00014420108F8B50D460446002685B17CB1DF
:103FB0006189A94208D827686D1A20462660ADB2EB
:103FC0003C46FFF79DFEF1E729462046FFF770FECD
:103FD0002046F8BD0346002290B2013203B9704773
:103FE0001B68F9E710B5044680B107F033FDA37BE9
:103FF0000133A37307F036FDA37B3BB9044A4FF4AA
:1040000051710448BDE81040FFF71EBA10BD00BF53
:10401000284101086442010838B50D46044600B144
:1040200021B938BD29890B4423811446226823898C
:10403000002AF7D162899A420DD00A4A4FF4597189
:104040000948FFF701FA23682BB1064A40F26531AF
:104050000648FFF7F9F92A8923892560134423814B
:10406000DFE700BF2841010878420108A5420108A6
:1040700010B50C46FFF7D0FF2046BDE81040FFF713
:10408000B1BF00002DE9F84F054616461F460C4605
:10409000002947D00B89934244D3002842D002899B
:1040A000BB199A423EDB4FF00008DFF8C090DFF802
:1040B000C0A0B5F80AB06289ABEB070B6868A2EB49
:1040C0000802616838449345414428BF9346B3458C
:1040D00028BFB3465A465F44FEF720FA6B89A6EB29
:1040E0000B06D844BB42B6B205D24A4640F2F7317D
:1040F0001D48FFF7A9F96389434505D24A464FF4A5
:104100007E715046FFF7A0F96389434504D82468BF
:1041100004B93EB94FF000086B89BB4220D12D682D
:10412000EDB9C6B16FF00F0010E037466289238900
:104130009A4201D123685BB92DB16A892B899A42D1
:1041400001D12B6823B9002EB3D13046BDE8F88FDA
:104150006FF00500FAE7002CE7D12046F6E70027CC
:10416000002CE3D1E9E700BFB8420108284101086B
:10417000CF42010819B100230A89FFF783BF6FF00E
:104180000F0070472DE9F0410F469046054618B3E1
:1041900021B30026B8F1000F00D015B93046BDE8B4
:1041A000F0816C892BB1A34203D31B1B9BB22D68FA
:1041B000F0E7E41A6968B819A4B21944444528BF65
:1041C000444622462644A8EB0404FEF7A7F9B6B2FB
:1041D00000231FFA84F8EAE70646DFE70E46DDE72C
:1041E00038B515460A462989FFF7ECFD044648B163
:1041F0002946FFF7BFFF28B1034A40F24351034865
:10420000FFF722F9204638BD28410108EC42010899
:10421000F0B5124C4FF480404FF6FF7623880133FF
:104220000F4D04229BB2B34208BF4FF4404355F8F0
:10423000041B096831B9013A12F0FF02F7D11846A0
:10424000238007E0CF8A9F4205D1013880B2002841
:10425000E5D12380F0BDC968ECE700BF58230020FA
:104260001048010808B507F089FA6FEA8040024B50
:104270006FEA9040188008BD5823002010B5037DD8
:104280000446012B04D1054AD4210548FFF7DCF888
:1042900021460120BDE8104008F0AEBF00430108F0
:1042A0002243010810B5044628B90F4A4FF494710F
:1042B0000E48FFF7C9F807F099FA638B9B0511D4F4
:1042C000E36F7BB15A7F01325A77E36F5B7F2BB983
:1042D000054A40F22D110648FFF7B6F8638B43F408
:1042E0000073638310BD00BF00430108344301081D
:1042F0004043010810B5044628B90F4A40F23F1167
:104300000E48FFF7A1F807F071FA638B9B0511D5F2
:10431000E36F7BB15B7F2BB9074A40F2431108483A
:10432000FFF792F8E26F537F013B5377638B23F4DF
:104330000073638310BD00BF0043010834430108CC
:104340004043010810B5044628B9174A4FF4CE710E
:104350001648FFF779F8237D042B11D0072B1BD0CB
:10436000032B0BD1204603F0FBF870B92046FFF772
:10437000C1FF05232046237503F038FA002010BD45
:10438000204603F0EDF80028F3D0431CF7D1638BEF
:1043900043F008036383F1E7204603F0E1F80028C7
:1043A000F3D10923E6E700BF0043010834430108C5
:1043B000F8B50E460546144607F018FA1B4B002EBA
:1043C00008BF1E4645B32B7D4BBB34B9FFF720FF1A
:1043D000044650B96FF0010012E0154951F8042B62
:1043E000126872B90133042BF8D1336803B12B6022
:1043F000104BEC821A681D60EA6003F0C1FC0020DB
:10440000F8BDD08AA04205D117685FB1306848B1C5
:10441000874207D0D268E4E76FF00F00F0E76FF053
:104420000500EDE76FF00700EAE700BF0458010858
:1044300010480108F865002038B50C46054607F01D
:10444000D5F91CB194F834400134E4B22C7238BD73
:10445000F8B505460E46174607F0C8F9002D4CD0B2
:104460002B7D002B4DD1022008F0BAFE0446002817
:104470004BD02B690361EB8AC382012303756B7DEB
:1044800043756B7A43722B7A0372EB7AC372AB7A01
:1044900083722B680360EB8A3BB11D4A1368AB4201
:1044A00023D1EB6813600023EB602846FFF7E6FE9C
:1044B000184BA36100236377237D012B05D0164A97
:1044C0004FF465711548FEF7BFFF154B012E1A68B2
:1044D00038BF01261C602677E26003F051FC002300
:1044E00007B13B702046F8BD1346002BDBD0DA68DD
:1044F000AA42F9D1EA68DA60D5E72C466FF00F03DB
:10450000EEE76FF00E030024EAE74FF0FF33E7E732
:10451000F8650020B54A0008004301085843010827
:10452000FC650020F8B5044628B9134A40F2AA31C8
:104530001248FEF789FF228D41F27076E36A678E9A
:10454000656AD01AB742284494BFC11B811B002959
:1045500001DB6285F8BD5D1B02D500206085F9E7AF
:10456000B5F5803F05D3044A40F2BA310448FEF75E
:104570006BFF00206585EDE70043010888430108D3
:10458000AC43010838B505460C4607F02FF92DB3AA
:104590002B7D012B05D1124A40F2D6311148FEF78E
:1045A00053FF2A8D42F6E063111989B2994213D85C
:1045B0008A4288BF194628462985FFF7B3FF40F68F
:1045C000B73398420AD96B8B284643F002036B83BA
:1045D000BDE8384003F00AB91946ECE738BD00BF22
:1045E00000430108C843010810B5044648B14068BB
:1045F00008B1FFF785FB21460320BDE8104008F015
:10460000FBBD10BD10B500B910BD0468FFF7ECFF8D
:104610002046F8E738B5044628B90D4A40F28661CD
:104620000C48FEF711FF032008F0DAFD054660B1E3
:104630002346024604F1100153F8040B8B4242F862
:10464000040BF9D16868FFF7CDFC284638BD00BFE0
:1046500000430108F043010838B504460D4607F051
:10466000C5F804B1256138BD38B504460D4607F0DC
:10467000BDF854B1237D012B05D1044A4FF4FD61EF
:104680000348FEF7E1FEC4F8845038BD004301083A
:104690000C44010838B504460D4607F0A7F854B19C
:1046A000237D012B05D1044A40F2FC710348FEF73B
:1046B000CBFEC4F8805038BD0043010834440108E3
:1046C00038B504460D4607F091F854B1237D012B0F
:1046D00005D1044A40F616010348FEF7B5FEC4F8BA
:1046E000905038BD004301085C44010838B50446C9
:1046F0000D4607F07BF81CB1237D012B08BFA56197
:1047000038BD000070B504460E46154607F06EF839
:104710005CB1237D012B05D1044A40F648010448D1
:10472000FEF792FEC4F88C60657770BD0043010807
:104730008444010808B528B9064A40F6B90106487C
:10474000FEF782FE054B064A18681268104418608E
:1047500008BD00BF00430108A44401085423002001
:104760000066002038B504460D462AB9094A40F6CD
:10477000CF010948FEF768FE4DB12B8D3BB1282BC8
:104780008ABF283B00239BB29C4228BF1C46204680
:1047900038BD00BF00430108C0440108F8B5044615
:1047A0000D4616461F4607F021F8002C65D0002D57
:1047B00063D0237D002B63D12B68207A636026832E
:1047C00080B3FFF777F8054600285CD023680BB963
:1047D00003682360E68A4EB32046FFF7ABFF002351
:1047E0002A4A294620650138E3626064C4E9093237
:1047F000C4E9160042F6E0634FF40670221DA4F8E7
:1048000060306086FFF7AEFF0123608602212046FC
:10481000A4F84830C4F8887002F016FE054668B166
:104820002846F8BD201D04F043FDCCE7FFF7F0FC5F
:10483000E0820028D0D16FF00105F1E70223237553
:104840002EB1134A1368A3420FD1E3681360114BD2
:104850001A681C60E26003F093FA0F4B01222046B5
:104860001A7002F0C3FFDBE71346002BEFD0DA68C3
:10487000A242F9D1E268DA60E9E76FF00F05CFE70D
:104880006FF00905CCE76FF00305C9E7E02EE02ED5
:10489000F8650020F0650020F465002010B504469E
:1048A000406F18B1FFF7AEFE0023636710BD000034
:1048B00010B50446F8B1037D012B1CD90A2B1AD080
:1048C000FFF718FDA06F18B1FFF71AFA0023A367CE
:1048D000636F13B12046FFF7E1FF4FF6FF73E06E01
:1048E0002386FFF78FFE206FFFF78CFE0023C4E9BD
:1048F0001B33A4F8683010BD38B505460C4629B9FD
:10490000274A40F68D012748FEF79EFD2DB9244A1F
:1049100040F68E012448FEF797FD2B68A3421DD177
:10492000E3682B6000232046E360FFF7C1FF237D8F
:104930000A2B1BD1E36E5BBB236F2BB1184A40F6E9
:104940009E011A48FEF780FD636FEBB1144A4FF4E5
:104950000A611748FEF778FD16E01346002BE1D0F8
:10496000DA68A242F9D1E268DA60DBE7012B0BD00A
:10497000638BDA07DED543F002032046638302F03F
:1049800035FF237D012BD5D100232375E38238BD6C
:10499000034A40F69D010748FEF756FDCCE700BFED
:1049A00000430108E8440108044501083C450108AA
:1049B00055450108244501082DE9FF4704460E46E8
:1049C00006F014FF002C61D0237D012B05D1314A64
:1049D0004FF410713048FEF737FD237D0A2B09D1C3
:1049E00021462E48FFF788FF204604B0BDE8F04777
:1049F000FFF744BCD4F85090D4F824A0D4F89070B9
:104A0000D4F81080E58A9BB93DB1254A1368A342CA
:104A100006D1E36813600025E5602E460FE01346DB
:104A2000002BF8D0DA68A242F9D1E268DA60F2E746
:104A300021461C48FFF760FF1B4B01221A70206FB4
:104A400008B1FFF7DFFDE06E08B1FFF7DBFD606F37
:104A500008B1FFF7D7FD2046FFF74CFC56B1238B7A
:104A6000524649462046CDE90153231D0093234673
:104A700002F050FE2046FFF701FC3FB16FF00C0141
:104A800040463B4604B0BDE8F047184704B0BDE8D7
:104A9000F08700BF004301086C450108086600204C
:104AA000F8650020F0650020F46500200121FFF783
:104AB00083BF000010B50C4629B9064A4FF4447173
:104AC0000548FEF7C1FC2046FFF7F0FF6FF00C0031
:104AD00010BD00BF00430108A045010870B50C4699
:104AE000054628B9084A40F60A110848FEF7ACFC0A
:104AF00004B970BD22682B68E6689A4202D120464C
:104B0000FFF7D4FF3446F3E700430108C04501082E
:104B100038B50D46044680B1036873B10B4B196874
:104B2000FFF7DCFF0A4B20461968FFF7D7FF25B1D6
:104B30002B6813B1074B1B6803B938BD196822688D
:104B4000914204BF2A681A60DB68F5E7F06500202F
:104B5000F8650020FC6500200C4B002230B4196879
:104B600004460B4B10461D6819B968B130BCFFF7FD
:104B700023BF0B7DA34205D10B6AEB1A934224BFDE
:104B80001A460846C968EFE730BC7047F065002058
:104B900000660020F8B5044606F028FE012008F063
:104BA0001FFB0346002836D13F4E3068002857D1FE
:104BB0003E4B01463E4D1B682F68002B5BD108B170
:104BC000FFF774FF012008F00BFB034618BB092018
:104BD000FFF7C2FF012008F003FB0346D8B9082005
:104BE000FFF7BAFF012008F0FBFA034698B9220646
:104BF00049D45CB121460139326800202E68C9B21F
:104C0000002A42D113B11846FFF750FF012008F0E7
:104C1000E7FA034610B39C2218460021FDF7B0FCCA
:104C200042F6E06203464475A0F86420214A82629D
:104C3000FF22C2720622A0F84020C2871E4A0263E9
:104C40001B4A126802621D4A127882771C4A8264EB
:104C50001C4AC0F884201C4AC0F894201846F8BDAD
:104C6000438BC568190704D523F008034383FFF776
:104C700069FB28469AE71A6ABA1A8A4224BF18467C
:104C80001146DB6899E77F21B5E7577D8F4204D352
:104C900007D1156A751B854203D3106A394613463E
:104CA000301AD268ACE700BFF0650020086600202B
:104CB00000660020E02EE02EFFFF180205660020AF
:104CC0000100E02E5D4E000800DD6D004020FFF782
:104CD00061BF000030B50D4685B0044628B94A4A88
:104CE0004FF4AF714948FEF7AFFB237D002D3FD055
:104CF000042B01D0072B3BD1A26F22B9218D42F6A4
:104D0000E062914234D0638BDB0605D43E4A4FF417
:104D1000B2713F48FEF798FB238B20460293E38A4B
:104D20000193231D00932346626A216D02F0F2FC79
:104D30002046FFF7BDFD374A1368A34210D1E36850
:104D4000136000230122E360334B1A70334B1B685E
:104D5000A3421DD101F060FE002005B030BD134616
:104D6000002BEED0DA68A242F9D1E268DA60E8E717
:104D7000012B1AD0022B38D0002B3ED1E38A3BB155
:104D8000274A1368A34208D1E36813600023E36055
:104D90002046FFF773FADFE71346002BF6D0DA68F8
:104DA000A242F9D1E268DA60F0E71E49002051F82A
:104DB000232012689AB90133042BF8D121461A48EE
:104DC000FFF79AFD237D012B04D10F4ADF211748FD
:104DD000FEF73AFB2146022008F00EFABCE7D56F39
:104DE000AC4208BFD067D268E4E721460948FFF724
:104DF00083FD094B01221A70CAE7204605B0BDE8C1
:104E00003040FFF79FBA00BF00430108F445010896
:104E100014460108F0650020F46500203466002087
:104E2000F865002010480108FC6500202D460108A7
:104E300010B5044606F0DAFC64B1237D204601215A
:104E4000012B1EBF638B43F010036383BDE810404A
:104E5000FFF740BF6FF00F0010BD000010B508460F
:104E6000144669B13AB11189FFF78CFB2046FEF771
:104E700047FF002010BD33B9BDE81040FFF7D8BF91
:104E80006FF00F00F6E71046F4E70000F8B50446AF
:104E900080B3866F0023D0F88450777B8367E5B1B9
:104EA000014632460069A8470546E8B9BB0612D557
:104EB000238D42F6E062D4F8846093421CBF013334
:104EC000238546B10023214620691A46B0470D309C
:104ED00001D16FF00C052846F8BD01462B4632463D
:104EE0002846FFF7BBFFDFE70D35F2D06FF0040572
:104EF000A667F0E76FF00F05EDE700002DE9F84336
:104F00001B4D1C4F2B781C4E01332B703C684FF00F
:104F100000080CB9BDE8F8832B78A27F9A4224D010
:104F2000A377638BD90709D543F002032046638337
:104F300002F05CFC638B23F003036383638B1A072B
:104F400005D523F0080320466383FFF7FBF9A36F21
:104F5000D4F80C903BB1204686F80080FFF796FF0E
:104F60003378002BD2D14C46D3E7D4F80C90FAE733
:104F700005660020F0650020F465002070B5054648
:104F80000E46144606F032FC1DB32B7D012B19D0C2
:104F900096B16B8B43F010036B832CB10121284633
:104FA000BDE87040FFF796BEA86F08B9002070BD3D
:104FB000FEF7A6FEAC67F9E7002CF7D0042B04D867
:104FC000022B04D86FF00A00F1E7072BFAD1002179
:104FD000E5E76FF00F00EAE72DE9F04F9E4D87B04F
:104FE000DFF89C922B68DFF89C8201339B4E2B608C
:104FF00099F80030013389F80030D8F800B0002764
:10500000BBF1000F0CD1964E944F3468DFF87882D4
:10501000DFF87892002C40F0DE8107B0BDE8F08F19
:105020009BF814202AB9324640F2C2418D48FEF75F
:105030000BFA9BF81420012A05D1324640F2C341F5
:105040008948FEF701FA9BF814200A2A05D1324656
:1050500040F2C4418548FEF7F7F999F800209BF823
:105060001E10914204D1DBF80C405F46A346C7E70F
:105070009BF814108BF81E2002299BF8422040F068
:105080009D80032A40F29C804FF0010A9BF814C0D7
:10509000BCF1060F0DD1BBF81A20D30609D52A683A
:1050A000DBF82010521A282A84BF0AF1010A5FFA9D
:1050B0008AFA9BF8094014F008041CD0BCF1040FD4
:1050C00003D0BCF1070F40F04981DBF820204FF4FA
:1050D000FA742868801ADBF8942002F5242101F67E
:1050E000B841B1FBF4F1884240F226810AF1010A8D
:1050F00001245FFA8AFADBF874206AB12A68DBF8C7
:105100002010511ABBF9402002EB4202B1EB420FD2
:1051100002D35846FFF7C2FB9BF81420032A40F045
:105120001F812A68DBF82010521A282A03D8BAF106
:10513000000F00F02B815846DBF890A0FFF7B8FB7A
:10514000D8F80020002F00F014815A4505D13246CE
:1051500040F271514648FEF777F9DBF80C20FA600F
:1051600084B1BBF818205B4658460292BBF8162063
:1051700001920BF104020092DBF82420DBF85010BE
:1051800002F0C8FADBF810205846DBF80C40059214
:10519000FFF774F8DFF8F8B000218BF80010BAF1CF
:1051A000000F09D0059A6FF00C011046D0479BF80C
:1051B0000030002B7FF421AFBB4656E70B2A61E796
:1051C0009BF899A0BAF1000F64D0DBF870202AB1E7
:1051D00032464FF49B612748FEF736F9DBF86C2026
:1051E0002AB9324640F2D9412348FEF72DF99BF8FF
:1051F0009A200B2A3FF648AF9BF899101F4A0A44A1
:1052000012F8011C9BF898208A420BD3BBF860105F
:1052100089B1584602F052F890B9584602F0E6FAC1
:1052200030B10DE00132D2B28A428BF89820EDD233
:105230004FF0000A2AE7584602F0DCFC0028F7D1BC
:105240009BF899204FF0000A062A8BF898A0EFD817
:1052500001328BF8992019E700660020004301080D
:105260000866002048460108714601089A46010870
:105270002D470108C6460108F846010820480108E4
:1052800005660020F065002082470108D847010824
:10529000F4650020BBF8302047F6FE718A429CBFBF
:1052A0000132ABF83020BBF94020BBF930109142FD
:1052B000BEDB584602F082F938B1DBF87020002AD4
:1052C000B6D1DBF86C20002AB2D09BF81420022A59
:1052D00014D0BBF93C10BBF93E205A4802EBE10266
:1052E0009BF842100C2928BF0C21415C8A4047F6EC
:1052F000FF718A42A8BF0A46ABF84020BBF8601095
:105300000024BBF84820BBF832C09142ABF83040D3
:10531000ABF848C028BF11464FEA4C02ABF86A40D0
:1053200092B24808B2EB510F98BF02465846ABF80C
:105330004A2002F007FCA9E69BF89B10424B03FBB6
:105340000122B2FBF4F2904208D9584602F02CFC3C
:1053500020B99BF89B2001328BF89B200024CAE6E1
:10536000092A7FF4E4AE2A68DBF82010521AF02AEA
:10537000DCE65A4505D0324640F275513348FEF717
:1053800063F8DBF80C20C8F80020E9E69BF81C2045
:105390009BF81D100132DBF80C40D2B291428BF821
:1053A0001C203FF662AE2A4FDBF88C208BF81CA045
:1053B00087F800A01AB9584602F018FA55E659467F
:1053C000DBF8100090473A78002A7FF416AE0028E8
:1053D0007FF44BAEEFE7227D0A2A05D03A4640F231
:1053E000A5514046FEF730F82A68216A521AF02A81
:1053F00011D92046FFF75CFABBF1000F0ED13268DD
:10540000A24205D03A4640F2B7514846FEF71CF892
:10541000E26832600EE0A346E468FBE53268A2422F
:1054200005D13A4640F2B3510A48FEF70DF8E2685A
:10543000CBF80C20D4F80CA02046FEF71FFF5446F2
:10544000E8E500BF00480108F824010058470108BA
:10545000F4650020B147010808B5FFF74FFD064A83
:1054600013780133DBB21370DB0703D5BDE80840C6
:10547000FFF7B2BD08BD00BF04660020094A1388CB
:10548000591C1180084A12681AB1084909888B42D0
:1054900004D2074A12681344187D70475B1ADBB2C6
:1054A000D05C7047386600204466002040660020CB
:1054B0003C660020F8B50C46054628B91D4A40F266
:1054C0002C411D48FDF7C0FFEB689889FEF78AF96B
:1054D000C20714D4194EE76830682B89796822898D
:1054E00003440A449A1A002A0FDACB1A002B0ADA6C
:1054F000091A686889B22981FEF7FEFC03E020469C
:105500000024FFF77FF82C60F8BDB889FEF76AF930
:10551000C30707D5EB6801209F89FEF763F9EB68A5
:105520003843988127682046FFF75EF83C46002FF5
:10553000D1D1E8E7284801084D480108306600202D
:10554000F8B5064628B91C4A40F283711B48FDF79E
:105550007BFF1B4B1F8867B11A4D00232B802B88C4
:10556000BB4206D2FFF78AFF0128F8D0022801D0FB
:10557000C8B9F8BDFFF782FF0428FAD12B880133A0
:10558000BB42F6DAFFF77AFF0402FFF777FFA4B217
:1055900044EA00039BB25A1EB2F5806F28BF4FF455
:1055A00080637386DBE7FFF769FF0128E1D92B8869
:1055B000023B18442880D2E72848010874480108B3
:1055C000486600203866002010B5044628B90F4A06
:1055D00040F25A210E48FDF737FF0E4B187810F0B5
:1055E000100011D0638BDB0606D4D4F890301BB1C9
:1055F0006FF00E012069984721460748FFF77CF9B4
:105600002046FEF73BFE012010BD00BF28480108E0
:10561000904801082C660020F06500202DE9F84F25
:10562000064617460C46DFF8A490DFF8A8A0002C29
:105630003AD0244B1D68E3685868FEF7D7F8E26853
:10564000B4F8088083469089FEF7CCF8A5EB0803F0
:1056500010F00300A3EB0B0518BF01202D1A002D3D
:1056600023DBD4E900B0FEF7B5FCB6F8663005469A
:10567000834205D24A4640F264415046FDF7E4FEBB
:10568000B6F86600104A451B20461188A6F86650F9
:1056900023890B441380FEF7A7FFB6F8663073B179
:1056A000BBF1000F0BD11FB100242046BDE8F88FDD
:1056B000064A40F26E410648FDF7C6FEF4E75C4636
:1056C000B5E700BF0C6600202466002028480108CA
:1056D000E0480108B84801082DE9F84F044628B908
:1056E000374A40F287413748FDF7AEFE237D032B52
:1056F00005D8334A4FF491613348FDF7A5FE334B8B
:10570000334E1B78334F13F0100F00F09580326842
:10571000314DB4F860102B68D4E9150EA0EB020CE3
:10572000BCF1000F0CDB904203D1AEEB030000286C
:1057300006DB9E4513D129480068C08988420ED9EE
:105740002648B4F862800068C0891FFA80FCA4F87B
:105750006000E045C4E9152338BFA4F86200626C1C
:10576000D01A0028C0F269813888002839D1B4F8ED
:1057700060C07144A06D6044884232D1B4F93010E9
:1057800000292EDB9A422CD194F84330FF2B1CBF0A
:10579000013384F8433094F84330032B20D9B4F814
:1057A00048204FF6FF71638E13449BB29A4288BF24
:1057B0000B46A4F84830204601F07CFF11E000BF02
:1057C000284801080049010819490108106600200D
:1057D000306600204A6600200C6600203C660020EF
:1057E000E9D0616B41B3A36B2A689B1A002B23DAC3
:1057F000B34B89B2B3F800C0B4F93C30ACEB010252
:10580000C3F3CF00121A15B213FA82F2B4F93E3084
:10581000002D12B2A3EBA303B8BFA1EB0C01A2872A
:10582000BCBF09180DB22B449BB2E38703EBE20324
:10583000A4F840300023636338883368626A002824
:1058400000F04483217D062900F24083D51A012D02
:1058500000F19A81591E0144891A0029C0F29481ED
:10586000DFF87092D9F80480B8F1000F05D1954A9D
:1058700040F29A519448FDF7E7FD4FF6FE739D42C2
:1058800005D9904A40F29B519048FDF7DDFDD9F8CB
:105890000430ADB21B89AB4205D28A4A40F29D5119
:1058A0008B48FDF7D1FDB9F8083000215B1BA9F842
:1058B0000830D9F804301B895B1B9BB2B8F80A206A
:1058C000AA42C0F0588129464046FEF7F1F9636AC2
:1058D000D9F80C20336053603368626A991A002942
:1058E000C0F224826FEA030C208D02EB0C01C84247
:1058F00000F11C82934240F01382764DEB68B5F8BC
:1059000008809889FDF76EFF10F00300238D18BF03
:105910000120404480B28342388040D2EB689889AD
:10592000FDF760FFC20710D5EB68B3F80C80404666
:1059300028F47C58FDF756FF00F03E00FDF752FFBB
:10594000EB6848EA0008A3F80C80238D2B81EB68F4
:105950009889FDF747FF8307686842BF2B8903F1E9
:10596000FF332B812989FEF7C7FAEB68B5F8088069
:105970009889FDF737FF10F00300336818BF012046
:10598000626A404480B238801844238D13449842A0
:1059900005D04C4A40F2D1514F48FDF755FD636F99
:1059A000002B00F00081EB689889FDF71BFFC00712
:1059B00000F1F680D4F8748030683B880344B8F175
:1059C000000F37D0D8F80CC0B8F80810DCF8042065
:1059D0001144591A002980F21281D31A002B29DAB6
:1059E000EB68121A2A819889FDF7FCFE8307686824
:1059F00042BF2B8903F1FF332B812989FEF77CFA03
:105A0000EB68B5F808909889FDF7ECFE10F00300FC
:105A1000336818BF0120484480B238801844D8F851
:105A20000C305B68984205D0264A40F202612B4850
:105A3000FDF70AFDC4F87480B5E0D143D94200F106
:105A40009680216DC91A0029C0F29180618B4807A8
:105A500009D521F004016183B4F84A10A4F8481074
:105A60000021A4F86A10B4F93C00E18F636401EBF3
:105A7000E001A4F840100021A4F84210217D032980
:105A800038D99B1AB4F84A10B4F848209BB2914216
:105A900026D9618B11F4006F618E14BF01200220A2
:105AA00011FB00F189B2994294BF5018D01883B20B
:105AB0009A4201D94FF6FF73A4F848301AE000BFAC
:105AC00000660020284801083249010842490108BF
:105AD00051490108146600206149010897490108ED
